:100000000C94C8000C94F0000C94F0000C94F000D8
:100010000C94F0000C94F0000C94F0000C94F000A0
:100020000C94F0000C94F0000C94A5120C94141392
:100030000C94F0000C94F0000C94F0000C94F00080
:100040000C94F0000C94F0000C94F0000C94F00070
:100050000C94F0000C94F0000C94F0000C945B12E3
:100060000C94F0000C94F0000C94F0000C94F00050
:100070000C94F0000C94F0000C94F0000C94F00040
:100080000C94F0000C94F0000C94F0000C94F00030
:100090000C9446150C94F0000C94F0000C94F000B5
:1000A0000C94F0000C94F0000C94F000080B00028B
:1000B0000202000009040000010202000005240001
:1000C0001001052401010104240206052406000193
:1000D0000705810310004009040100020A00000026
:1000E00007050202400000070583024000000403E8
:1000F000090412010002EF02014041233680000191
:100100000102030141726475696E6F204C4C43001B
:1001100041726475696E6F204C656F6E6172646FB9
:100120000000000000250028002B002E00310004F4
:10013000040404040304050202020204030202028E
:100140000206060606060604040202020404040867
:1001500002011040804010204080408008020401CD
:10016000804020100201108010204040200000003C
:100170000200090F0000030401000C000000000051
:10018000000000000000000000000000C31675160B
:1001900011241FBECFEFDAE0DEBFCDBF11E0A0E03B
:1001A000B1E0E2E6FCE302C005900D92A63EB10785
:1001B000D9F723E0A6EEB1E001C01D92A339B20742
:1001C000E1F710E0C7ECD0E004C02197FE010E94E7
:1001D000EA1CC63CD107C9F70E9424170C94241EC0
:1001E0000C940000FC0180917202882311F13FB74A
:1001F000F89482E08093E9002091F200822F90E051
:100200001816190614F481E090E0882339F0289834
:1002100044E6409371024091F1004083222339F07B
:100220002091F200211103C02BE62093E8003FBF8C
:1002300008958FEF9FEF08952FB7F89483E0809390
:10024000E9009091E800892F807295FF04C0909199
:10025000F20080E4891B2FBF08958091690281110B
:100260000DC082E08093650284E080936602109264
:1002700068021092670281E08093690285E692E04D
:100280000895282F30E0F901E359FE4F9491F901C8
:10029000E25BFE4F8491215D3E4FF90124912223C0
:1002A00009F430C09923E9F091509F30D0F4E92F40
:1002B000F0E0E35AFE4F0C94EA1C8B018F016C01B5
:1002C00083018701710171017101920198019C0103
:1002D000A001A6017101AA01909180009F779093DF
:1002E0008000E22FF0E0EE0FFF1FEF5DFE4FA591C3
:1002F000B4919FB7F894EC91611132C080958E2330
:100300008C939FBF0895909180009F7DE8CF90913E
:100310008000977FE4CF94B59F7794BDE2CF94B5EA
:100320009F7DFBCF909190009F7790939000D9CFC5
:10033000909190009F7DF9CF90919000977FF5CF9D
:100340009091C0009F779093C000CBCF9091C00058
:100350009F7DF9CF9091C200977F9093C200C1CF4B
:100360008E2BCECF8230910538F0880F991F880FE1
:10037000991F05970197F1F708953FB7F894809179
:10038000610290916202A0916302B091640226B56D
:10039000A89B05C02F3F19F00196A11DB11D3FBFBD
:1003A000BA2FA92F982F8827BC01CD01620F711D8C
:1003B000811D911D42E0660F771F881F991F4A9586
:1003C000D1F708958F929F92AF92BF92CF92DF9212
:1003D000EF92FF924B015C010E94BD016B017C0119
:1003E0000E94BD016C197D098E099F09683E73400A
:1003F00081059105A8F321E0821A9108A108B108AE
:1004000088EEC80E83E0D81EE11CF11C8114910413
:10041000A104B10429F7FF90EF90DF90CF90BF9037
:10042000AF909F908F9008952FB7F89460915D02E0
:1004300070915E0280915F02909160022FBF0895DB
:100440000895089540914C0250914D0220914A0226
:1004500030914B0242175307B4F49091E800957025
:10046000E1F39091E80092FD19C08093F100809132
:100470004C0290914D0201968F739927892B19F4A4
:100480008EEF8093E80080914C0290914D0201968E
:1004900090934D0280934C0281E0089580E008958E
:1004A000EF92FF920F931F93CF93DF93F82E192FA4
:1004B000E62E042F81E0860F880F0E94220283E03F
:1004C0000E942202CF2DD12FEC0EFD2EF11CCE1555
:1004D000DF05B9F007FF13C0FE0184910E942202DC
:1004E000182F80E00E942202812321968111EFCFF4
:1004F000DF91CF911F910F91FF90EF900895888128
:10050000EDCF81E0F5CFDF92EF92FF920F931F9333
:10051000CF93DF93D82E8A01EB017B01E40EF51E09
:10052000CE15DF0559F0D7FE12C0FE0184910E945E
:10053000220221968111F4CF0FEF1FEFC801DF9146
:10054000CF911F910F91FF90EF90DF9008958881D8
:10055000EECF0F931F93CF93DF931F92CDB7DEB7EC
:1005600082E0898342E450E06CEA70E080E80E9417
:1005700083020E942D01DC0112960D911C91011540
:10058000110589F0D801ED91FC910280F381E02DF5
:10059000BE016F5F7F4FC801099597FD04C0F80148
:1005A00000851185ECCF89810F90DF91CF911F914C
:1005B0000F910895615030F02091F100FC012083EB
:1005C0000196F8CF289884E68093710208958F925F
:1005D0009F92AF92BF92CF92DF92EF92FF920F93D2
:1005E0001F93CF93DF936C017B018A0180910B01F4
:1005F000882309F45CC080917202882309F457C0F3
:100600008091500280FF05C08091E000826080935D
:10061000E000E801B12C8AEFA82E93E0892E2AE3AE
:10062000922E209711F4BB20D9F10E941C01811158
:100630000AC0AA94AA20D9F161E070E080E090E0BD
:100640000E94E201EECF8C171D0611F00CF08C2FEA
:100650009FB7F8948092E9002091E80025FD02C040
:100660009FBFDFCF282F30E0C21BD30BF701815093
:1006700020F041914093F100FACFE20EF31EBB202F
:1006800021F09092E800B12CEBCF8091E80085FD3D
:10069000E7CF9092E800BB24B394209709F3F3CFFF
:1006A0005D9884E680934F02101611063CF081E0BD
:1006B00090E0F6019383828310E000E0C801DF91AF
:1006C000CF911F910F91FF90EF90DF90CF90BF904F
:1006D000AF909F908F900895CF93DF931F92CDB7E7
:1006E000DEB76983DC01ED91FC910280F381E02D9E
:1006F00041E050E0BE016F5F7F4F09950F90DF91A1
:10070000CF91089583E08093E9008091F2008823DF
:1007100019F08AE38093E80008950E941C0190E09C
:100720000895CF93DF931F92CDB7DEB7FC01848588
:10073000958597FD08C02FEF3FEF358724870F90F1
:10074000DF91CF910895CE0101960E94F2000197AA
:1007500019F4898190E0F3CF8FEF9FEFF0CF0F93E3
:100760001F93CF93DF931F92CDB7DEB78C01FC01AF
:100770008485958597FF0BC0CE0101960E94F200FB
:10078000019771F4898190E0F80195878487F801D9
:10079000848595850F90DF91CF911F910F910895DA
:1007A0008FEF9FEFF1CFFC018485958597FD0BC0FE
:1007B0009FB7F89482E08093E9008091F2009FBF98
:1007C00090E0019608959FB7F89482E08093E90045
:1007D0008091F2009FBF90E00895FC0183858F3FD8
:1007E00019F061E00C9441010895FC018081918130
:1007F000892B39F0A281B3819C9111968C919CBD7B
:100800008DBD83858F3F19F060E00C944101089500
:10081000AF92BF92CF92DF92EF92FF920F931F930E
:10082000CF93DF93EC0188819981892B89F06EBD8C
:100830000DB407FEFDCFBEB48B2DDF91CF911F917C
:100840000F91FF90EF90DF90CF90BF90AF90089501
:100850008885998511E0892B09F010E8AA24A394D2
:10086000862F812309F0A12C062F2C813D814E81FA
:100870005F8160E271EA87E090E00E94A91CF22E9D
:10088000B02EE12CC22ED12CFF2019F0C6010E94FF
:10089000B2018A85877F09F042C08D858F3F89F03C
:1008A000902F912381E009F480E08A1551F0EF85C3
:1008B000F8898F89992369F19081892B8083AA24F3
:1008C000A394E989FA898081998D892B8083FF20FF
:1008D00019F0C6010E94B2018E858F3F39F0EB8975
:1008E000FC898081988D892309F0E12AE989FA89B8
:1008F0009081898D8095892380838E858F3F09F033
:10090000BE2C88859985892BB9F5110F1111BCCFA3
:1009100093CF9081809589238083A12CD2CFE989C0
:10092000FA898081998D892B8083FF2019F0C60177
:100930000E94B2018D858F3F49F0EF85F8898F893C
:10094000902F9123A9F09081892B8083E989FA89DE
:100950009081898D8095892380838E858F3F69F270
:10096000EB89FC898081988D892339F2E12AC5CFF2
:10097000908180958923E9CF1695C8CF8F929F9259
:10098000AF92BF92CF92DF92EF92FF920F931F939D
:10099000CF93DF937C014B016A01B22EA32E0E94FC
:1009A000F503E401C80CD91CCC15DD0569F4CB2D89
:1009B000DA2D0C0F1D1FC017D10759F06FEFC701BB
:1009C0000E9408048993F7CF6991C7010E94080427
:1009D000EBCFC7010E94ED0381E0DF91CF911F9122
:1009E0000F91FF90EF90DF90CF90BF90AF909F90CE
:1009F0008F9008958F929F92AF92BF92CF92DF9285
:100A0000EF92FF920F931F93CF93DF937C01B62E4B
:100A1000A72E6A0149010E94F503E401080D191D82
:100A2000C017D10761F4CB2DDA2DCC0EDD1ECC150D
:100A3000DD0551F06991C7010E940804F8CF699162
:100A4000C7010E940804ECCFC7010E94ED0381E0BA
:100A5000DF91CF911F910F91FF90EF90DF90CF909A
:100A6000BF90AF909F908F90089520910702260F1E
:100A70003327331F21323105ECF420919902FC0118
:100A800090E080E0243069F082E00895A0910702B0
:100A90002191AC0149515E4FA40FB52FB11D2C938C
:100AA0000196861798F380910702680F60930702FA
:100AB00080E0089581E008951092990281E080938A
:100AC00098021092730261E082E00E94410161E0AD
:100AD00083E00E944101E9EBF0E080818E7F80831A
:100AE00080818D7F808388E48093B80085E4809343
:100AF000BC000895CF93DF9391E09093E6018823A3
:100B0000B9F0C091B800D091BA008091BC008A7B46
:100B10008093BC0060E082E00E94410160E083E0DD
:100B20000E9441010E945C05D093BA00C093B800B6
:100B3000DF91CF9108958F929F92AF92BF92CF9203
:100B4000DF92EF92FF920F931F93CF93DF93D09199
:100B5000C202D13208F0D7C0182FC091C1020E9442
:100B6000BD016B017C018091990281116BC082E013
:100B700080939902109398028FEF809397021092BE
:100B80009602D0939502A1EAB2E0E5E7F2E080E0B8
:100B9000D81391C01092740280917402CC0FC82BAC
:100BA000C093740280917302813009F088C0109262
:100BB00073020E94BD016B017C01809174028093DD
:100BC000BB0080919B0290919C02A0919D02B091EC
:100BD0009E02892B8A2B8B2BA1F00E94BD010091D4
:100BE0009B0210919C0220919D0230919E026C19F3
:100BF0007D098E099F09061717072807390708F48A
:100C000042C08091BC0083FDD8CF85EC8093BC00AE
:100C10000E94BD016B017C0180919902823009F430
:100C200050C0809197028F3F09F46FC08091970266
:100C3000803209F46CC080919702803309F469C056
:100C400084E026C080919B0290919C02A0919D021D
:100C5000B0919E02892B8A2B8B2B09F484CF0E94A2
:100C6000BD0180909B0290909C02A0909D02B0904C
:100C70009E026C197D098E099F0986169706A806A3
:100C8000B90608F070CF80919A020E947A0585E03B
:100C90001092A0021092C20210929F02DF91CF9197
:100CA0001F910F91FF90EF90DF90CF90BF90AF908A
:100CB0009F908F9008959D9191938F5F69CF85EE5E
:100CC000A5CF80919B0290919C02A0919D02B09132
:100CD0009E02892B8A2B8B2B09F49ECF0E94BD018B
:100CE00000919B0210919C0220919D0230919E02E6
:100CF0006C197D098E099F09061717072807390700
:100D000008F08ACFC0CF81E0C3CF80E0C1CF82E0BE
:100D1000BFCF83E0BDCF1F93CF93DF93EA01122FA4
:100D2000DC0111968D919C91DC01ED91FC9102808A
:100D3000F381E02D0995C817D90729F4812F0E9466
:100D40009B0591E0811190E0892FDF91CF911F9158
:100D50000895AF92BF92CF92DF92EF92FF920F93DE
:100D60001F93CF93DF9300D0CDB7DEB7DC01211105
:100D700003C018962C911897253008F043C01F9691
:100D80004D935D936D937C93529790E080E0E22EBB
:100D9000F12C8E159F05B4F41A962C911A972111F7
:100DA0000AC0FD01E80FF91F4387452F562F672F13
:100DB00077270196EECFF701E81BF90BEA0FFB1F2F
:100DC0004287F3CF6D018BE0C80ED11C16969C9123
:100DD000169717968C91179799838A83AD90BC903C
:100DE0001197A114B10409F441C019960C9110E0B7
:100DF00098012E0D3F1DD50114968D919C9182175F
:100E0000930710F480E016C0F50181819281208162
:100E100031E030939F022093C1021092A002109201
:100E2000C2020115110599F421E0A701B601C5011F
:100E30000E948B060F900F90DF91CF911F910F9121
:100E4000FF90EF90DF90CF90BF90AF900895DC01BE
:100E5000ED91FC910280F381E02DA801BE016F5F4E
:100E60007F4F09950817190769F6DECF1296ED91A5
:100E7000FC911397309731F214962D913C91159770
:100E800019960C9110E02330310571F48E7F89831F
:100E90009A830F5F1F4F9E012F5F3F4FA701B6013F
:100EA000CF010E94FA04C6CF2115310519F49F77AE
:100EB0009983F1CF2230310511F49068F9CF2130B8
:100EC000310549F79F779064F3CFCF93DF93EC011F
:100ED0008B818823A1F0888191E090939F02809379
:100EE000C1021092A0021092C20281E00E949B05F2
:100EF00091E0811190E0892FDF91CF9108951092B8
:100F00005702109256021092A0021092C2020E9442
:100F10005C0580E292E0909353028093520281E25A
:100F200092E0909355028093540281E08B83CE012E
:100F30000E946507982F8111CECFDDCF0895E091F3
:100F4000570280915602E81730F4F0E0E65DFD4F5D
:100F5000808190E008958FEF9FEF08959091570260
:100F6000809156022FEF3FEF981748F4E92FF0E0F9
:100F7000E65DFD4F208130E09F5F90935702C901ED
:100F800008958091560290915702891B990B0895FC
:100F9000CF92DF92EF92FF920F931F93CF93DF9345
:100FA0007C01CB018A0120919F02222389F0EB0171
:100FB0006B01C40ED51ECC15DD0569F06991D70112
:100FC000ED91FC910190F081E02DC7010995F3CFDF
:100FD000642F0E943505C801DF91CF911F910F91B9
:100FE000FF90EF90DF90CF900895CF93DF931F9203
:100FF000CDB7DEB7698320919F022223F9F02091BB
:10100000C202203258F021E030E0FC013383228319
:1010100090E080E00F90DF91CF9108958091A00241
:10102000E82FF0E0EF55FD4F998190838F5F80931B
:10103000A0028093C20281E090E0ECCF61E0CE019B
:1010400001960E943505F7CF90E080E008958F92D9
:101050009F92AF92BF92CF92DF92EF92FF920F9347
:101060001F93CF93DF93FC018081813021F0823088
:1010700099F180E020C0858196812181328182179B
:10108000930718F401969683858383819481880F52
:10109000991FA781B085A80FB91F6D937C93838199
:1010A000948121813281215031098217930781F483
:1010B0001482138281E0DF91CF911F910F91FF90F5
:1010C000EF90DF90CF90BF90AF909F908F9008955A
:1010D000019694838383EECFEB0107811085858190
:1010E0009681892B59F481E090E096838583F801FD
:1010F00071836083F801D383C283DCCF6181728105
:1011000090E080E00E949A1B20E030E048EC52E43E
:101110000E94F21A6B017C01F80160817181072E37
:10112000000C880B990B0E949C1B4B015C01A701D2
:10113000960160E070E080E89FE30E94851A9B01C1
:10114000AC01C501B4010E94281C4B015C01BE0129
:101150000D2E000C880B990B0E949C1BA701960179
:101160000E94281C9B01AC01C501B4010E94861A93
:101170000E94641BF80171836083BCCF4F925F9221
:101180006F927F928F929F92AF92BF92CF92DF9297
:10119000EF92FF92CF93DF93FC018081813021F0A9
:1011A0008230B9F180E022C085819681218132812F
:1011B0008217930718F4019696838583838194811F
:1011C000EC01CC0FDD1FCC0FDD1FA781B085AC0F6C
:1011D000BD1F4D935D936D937C93139721503109FF
:1011E0008217930791F41482138281E0DF91CF91EB
:1011F000FF90EF90DF90CF90BF90AF909F908F9037
:101200007F906F905F904F900895019694838383B1
:10121000ECCF6A017B01C781D08585819681892BBE
:1012200069F481E090E096838583C882D982EA825E
:10123000FB82CC82DD82EE82FF82D7CF6181728118
:1012400090E080E00E949A1B20E030E048EC52E4FD
:101250000E94F21A4B015C01688179818A819B812D
:101260000E949C1B2B013C01A501940160E070E0F1
:1012700080E89FE30E94851A9B01AC01C301B20183
:101280000E94281C2B013C01C701B6010E949C1B37
:10129000A50194010E94281C9B01AC01C301B2016D
:1012A0000E94861A0E94641B688379838A839B83C9
:1012B000C0CFEF92FF920F931F93CF93DF93FC0168
:1012C0008081813029F0823051F130E020E02CC063
:1012D00005811681D0E0C0E0F12CE12C30E020E067
:1012E000C017D10709F1A781B085CE01880F991FDA
:1012F000A80FB91F8D919C91B8010E94951C8E0D6D
:101300009F1D260F371F7C010817190730F4B801FD
:101310000E94951C7C01260F371F2196E1CF078084
:10132000F085E02D20813181C901DF91CF911F919E
:101330000F91FF90EF9008952F923F924F925F92FE
:101340006F927F928F929F92AF92BF92CF92DF92D5
:10135000EF92FF920F931F93CF93DF93EC0188815D
:10136000813039F0823009F441C0C12CD12C760192
:1013700043C02D803E802101712C612C10E000E0E3
:10138000812C912C5401C12CD12C7601021513050E
:1013900099F1EF81F885C801880F991F880F991F6F
:1013A000E80FF91F6081718182819381A30192010D
:1013B0000E94CB1C860E971EA81EB91EC20ED31EFD
:1013C000E41EF51E481459046A047B0464F4C50144
:1013D000B401A30192010E94CB1C4B015C01C20E1F
:1013E000D31EE41EF51E0F5F1F4FD0CFEF81F8858F
:1013F000C080D180E280F380C701B601DF91CF9138
:101400001F910F91FF90EF90DF90CF90BF90AF9022
:101410009F908F907F906F905F904F903F902F9014
:101420000895089508952F923F924F925F926F9280
:101430007F928F929F92AF92BF92CF92DF92EF9264
:10144000FF920F931F93CF93DF9300D000D0CDB7BF
:10145000DEB7FC014B01042F9681878199838A8333
:10146000208031802114310409F439C1418550E0D4
:10147000D10114968D919C9184179507C8F4B12CD5
:101480008B2D0F900F900F900F90DF91CF911F91A8
:101490000F91FF90EF90DF90CF90BF90AF909F9013
:1014A0008F907F906F905F904F903F902F90089516
:1014B000F101808191E090939F028093C10210928C
:1014C000A0021092C20220E0BE016F5F7F4FC101F7
:1014D0000E948B06B82E882391F2802F90E09C8387
:1014E0008B83D12CC12C01E0AB81BC81CA16DB06F9
:1014F00038F6F101848195817D01EC18FD088E1587
:101500009F0508F47C01D101AC900E94BD012B0124
:101510003C0180919902811172C01E2D113208F098
:1015200010E20093990221E08B819C818E199F0922
:10153000C816D90608F420E020939802BFEFB093B4
:101540009702109296028FEF810F8093950200937D
:10155000740280917402AA0CA82AA092740280914D
:101560007302813009F092C0109273020E94BD0193
:101570002B013C01809174028093BB0080919B02FF
:1015800090919C02A0919D02B0919E02892B8A2B82
:101590008B2BA1F00E94BD0120919B0230919C02F7
:1015A00040919D0250919E02641975098609970920
:1015B000261737074807590708F442C08091BC0036
:1015C00083FDD8CFE5ECE093BC000E94BD012B0168
:1015D0003C0180919902813009F45CC080919602AF
:1015E000811710F410919602A5E7B2E0EAE2F2E06A
:1015F00080E0811751F19D9191938F5FFACF809197
:101600009B0290919C02A0919D02B0919E02892B19
:101610008A2B8B2B09F47DCF0E94BD0120919B0268
:1016200030919C0240919D0250919E02641975096F
:1016300086099709261737074807590708F069CF21
:1016400080919A020E947A0510E01092570210933E
:1016500056021E151F0409F012CF34016C0C7D1CBC
:101660002301C201861997098E159F05A8F5D1019E
:1016700011968D919C91DC01ED91FC910284F38592
:10168000E02D0995F20181932F01EBCFF5EEF09358
:10169000BC009BCF80919B0290919C02A0919D02E7
:1016A000B0919E02892B8A2B8B2B09F492CF0E943A
:1016B000BD0120919B0230919C0240919D0250916E
:1016C0009E02641975098609970926173707480786
:1016D000590708F07ECFB4CFCE0CDF1C05CFA28116
:1016E000B381109709F4CBCE2481358110E0418578
:1016F00050E02330310571F4816089839A834F5F14
:101700005F4F9401BE016F5F7F4FCD010E94BE0409
:10171000B82EB6CE2115310519F490689983F1CF12
:101720002230310511F49F77F9CF2130310549F787
:10173000906CF4CFCF93DF93EC01BC01655F7F4FDA
:1017400048850E94130A882301F1488550E030E063
:1017500020E060E070E0CB0124173507CCF4982F2F
:10176000872F762F6627EA85E1110AC0FA01E21B6E
:10177000F30BEC0FFD1FE2856E2B2F5F3F4FECCF7D
:10178000FE01E20FF31FE385F7CF6FEF7FEFCB0191
:10179000DF91CF9108958F929F92AF92BF92CF9297
:1017A000DF92EF92FF920F931F93CF93DF93EC01A1
:1017B0004A015B01888199810E949A0B2A8101E08C
:1017C00010E002C0000F111F2A95E2F70150110925
:1017D000012E000C220B330BAB81680179010A2E1C
:1017E00004C0CC0CDD1CEE1CFF1C0A94D2F7C09484
:1017F000D094E094F094C622D722E822F922E8811E
:10180000F981B901A801482159216A217B2104C02D
:10181000440F551F661F771FAA95D2F74C295D29E3
:101820006E297F292085CF01DF91CF911F910F91E4
:10183000FF90EF90DF90CF90BF90AF909F908F90F0
:101840000C94A9060F931F93CF93DF93EC0188812B
:1018500099810E949A0BAB01BC012A8181E090E042
:1018600002C0880F991F2A95E2F70197092E000CF4
:10187000AA0BBB0B2B8104C07695679557954795AE
:101880002A95D2F78C019D010423152326233723A3
:10189000C901B801DF91CF911F910F910895CF93A6
:1018A000DF93CDB7DEB767970FB6F894DEBF0FBEF4
:1018B000CDBFFC01868D978D188A198A1A8A1B8ADA
:1018C0009A8389831C821B8281E08A872CE130E025
:1018D00038872F831B868987CE0101969D8B8C8B41
:1018E00082E08E8B83E08F8BCE0144960E94220C87
:1018F000CB0167960FB6F894DEBF0FBECDBFDF9168
:10190000CF910895CF92DF92EF92FF920F931F93A2
:10191000CF93DF93CDB7DEB7E8970FB6F894DEBF6D
:101920000FBECDBF8C01FC01868D978D1BA21CA222
:101930001DA21EA29D8B8C8B1F8A1E8A81E08D8F1B
:101940008BE390E09B8F8A8F1E8E8EE08C8F4EE013
:10195000BE01695D7F4FCE0144960E94130A8FA19C
:1019600098A5982789279827F80195A784A789A57E
:101970009AA598278927982797A786A78BA59CA51E
:1019800098278927982791AB80AB6DA57EA57627F0
:101990006727762773AB62AB8FA598A9982789270D
:1019A000982795AB84AB89A99AA998278927982766
:1019B00097AB86AB8BA99CA998278927982791AFCD
:1019C00080AF072E000C880B990B0E949C1B20E017
:1019D00030E04AEA53E40E94F21A28EB3EE142E189
:1019E00052E40E94861AF80162837383848395838C
:1019F000C8010E944F0CC12CD12CE12CE5E4FE2E35
:101A000083309105F9F0C12CD12C70E8E72E75E4F4
:101A1000F72E82309105B1F0C12CD12CE12C66E477
:101A2000F62E8130910571F0C12CD12CF0E8EF2E0B
:101A3000FFE3FF2E892B31F4C12CD12C50E8E52E89
:101A400056E4F52EF80164A575A5072E000C880B49
:101A5000990B0E949C1BA70196010E94F21AF801A3
:101A6000668377838087918766A577A5072E000C0C
:101A7000880B990B0E949C1BA70196010E94F21AE9
:101A8000F801628773878487958760A971A9072EFB
:101A9000000C880B990B0E949C1BA70196010E94C9
:101AA000F21AF80166877787808B918B868D978DE8
:101AB000188A198A1A8A1B8A9A8389831C821B8234
:101AC00081E08A872BE130E038872F831B86898766
:101AD000CE0101969EAB8DAB82E08FAB83E088AFE9
:101AE000CE01C5960E94220CC12CD12C33E0E32EEE
:101AF00033E4F32E6115710501F1C12CD12C22E8DC
:101B0000E22E22E4F22E61307105B9F0C12CD12C05
:101B1000E12C92E4F92E6230710579F0C12CD12CC0
:101B200040E8E42E4FE3F42E6330710531F4C12C0C
:101B3000D12C80E8E82E81E4F82EF80164A975A97B
:101B4000072E000C880B990B0E949C1BA701960185
:101B50000E94F21AF801628B738B848B958B66A9B5
:101B600077A9072E000C880B990B0E949C1BA701DC
:101B700096010E94F21AF801668B778B808F918F05
:101B800060AD71AD072E000C880B990B0E949C1B59
:101B9000A70196010E94F21AF801628F738F848F59
:101BA000958FE8960FB6F894DEBF0FBECDBFDF91DC
:101BB000CF911F910F91FF90EF90DF90CF900895FC
:101BC000CF93DF93EC018CE390E00E94F01C8F83B5
:101BD0009887FC012D813E8190E080E08217930779
:101BE00031F011921192119211920196F7CF81E08A
:101BF000DF91CF9108959F92AF92BF92CF92DF92E3
:101C0000EF92FF920F931F93CF93DF93CDB7DEB781
:101C1000AA970FB6F894DEBF0FBECDBF8C01DC01D2
:101C200097965C934E939697CA01019699969C93CA
:101C30008E9398974E5F5F4F9B965C934E939A97C7
:101C40005E962D913C911BA21CA21DA21EA23D8B53
:101C50002C8B1F8A1E8A81E08D8F4BE650E05B8FB4
:101C60004A8F1E8E8C8F188A198A1A8A1B8A3A8389
:101C700029831C821B828A8728E630E038872F83DD
:101C80001B8689875E01B4E1AB0EB11CB8A6AFA27A
:101C900089A787E08AA741E050E060E070E0CE01CC
:101CA00087960E94CB0BCE0187960E94220C613052
:101CB00071058105910539F461E070E080E090E004
:101CC0000E94E201F0CF64E670E080E090E00E94C4
:101CD000E20120E047E050E060E070E0FE01319674
:101CE0006F01CF010E94A90664E670E080E090E0F9
:101CF0000E94E201D8015E968D919C91188A198A02
:101D00001A8A1B8A9A8389831C821B82FF24F3947C
:101D1000FA8689E190E098878F831B86F98620E018
:101D200040E050E0BA01C6010E94A906F801868D84
:101D3000978D188A198A1A8A1B8A9A8389831C822A
:101D40001B82FA868AE190E098878F831B86F9864A
:101D5000DD8ACC8A83E0E82EEE8A1F8A40E050E0DC
:101D6000BA01C5010E94CB0BD8015E968D919C9162
:101D7000188A198A1A8A1B8A9A8389831C821B8271
:101D8000FA868BE190E098878F831B86F986DD8A3F
:101D9000CC8A92E0992E9E8AEF8A41E050E060E082
:101DA00070E0C5010E94CB0BF801868D978D188AD3
:101DB000198A1A8A1B8A9A8389831C821B82FA8653
:101DC0008CE190E098878F831B86F986DD8ACC8A28
:101DD0009E8AEF8A40E050E0BA01C5010E94CB0B19
:101DE000D8015E968D919C91188A198A1A8A1B8A4D
:101DF0009A8389831C821B82FA868BE690E09887FF
:101E00008F831B86F98620E041E050E060E070E0BF
:101E1000C6010E94A90664E670E080E090E00E949E
:101E2000E201F80180A191A1009739F0DC01ED9168
:101E3000FC910280F381E02D0995F80182A193A124
:101E4000009739F0DC01ED91FC910280F381E02DE7
:101E50000995F80184A195A1009739F0DC01ED9175
:101E6000FC910280F381E02D099586E090E00E94CC
:101E7000F01CFC0182E391E09183808380E596E091
:101E80009383828315830483D8019196FC93EE9308
:101E9000909786E090E00E94F01CFC0184E291E0C3
:101EA0009183808381E596E0938382831583048305
:101EB000D8019396FC93EE93929786E090E00E946F
:101EC000F01CFC0186E191E09183808382E596E03D
:101ED0009383828315830483D8019596FC93EE93B4
:101EE000949781E0AA960FB6F894DEBF0FBECDBFDF
:101EF000DF91CF911F910F91FF90EF90DF90CF90E6
:101F0000BF90AF909F900895FC0101900020E9F7E9
:101F10003197AF01481B590BBC0183EC92E00C9444
:101F2000E7028F929F92AF92BF92CF92DF92EF9291
:101F3000FF920F931F93CF93DF93CDB7DEB7A19797
:101F40000FB6F894DEBF0FBECDBF6B017C01F7FE6C
:101F500041C06DE283EC92E00E946C038C01222769
:101F60003327A9012C193D094E095F0919A2CE0199
:101F700081967C019AE0892E912CA12CB12CCA016A
:101F8000B901A50194010E94A91C605DF70162934B
:101F90007F01211531054105510589F790E080E069
:101FA000309719F0CF010E94840F800F911FA196E6
:101FB0000FB6F894DEBF0FBECDBFDF91CF911F915A
:101FC0000F91FF90EF90DF90CF90BF90AF909F90D8
:101FD0008F900895AC019B0119A28E010F5D1F4FD8
:101FE0008AE0C82ED12CE12CF12CCA01B901A7013D
:101FF00096010E94A91C605DF80162938F01211572
:1020000031054105510589F790E080E0309779F27C
:10201000CF010E94840FCBCF0C94840F0C948C1DA5
:102020000C948C1D0C948C1D85ED8093BC008091CC
:102030009B0290919C02A0919D02B0919E020796F6
:10204000A11DB11D23E0B695A795979587952A9573
:10205000D1F72091BC0024FD03C01092990208958D
:1020600040919B0250919C0260919D0270919E0252
:10207000452B462B472B69F30097A105B10541F08D
:102080002AE22A95F1F700C00197A109B109E1CF31
:1020900080919A020C947A050F931F93CF93DF934C
:1020A0008C01EB01DC0114968D919C910E94820CB5
:1020B000F801048115810E941402AB01BC01FE01EC
:1020C000349680E2DF011D928A95E9F784E290E080
:1020D000A0E0B0E088839983AA83BB83F80182A53E
:1020E00093A5B0E0A0E08C839D83AE83BF838DE099
:1020F00090E0A0E0B0E088879987AA87BB87488BEB
:10210000598B6A8B7B8B82819381A481B5818C8B67
:102110009D8BAE8BBF8B81E0DF91CF911F910F9193
:1021200008958F929F92AF92BF92CF92DF92EF92DB
:10213000FF920F931F93CF93DF938C01EB01DC0190
:1021400014968D919C910E94820CF8010481158156
:102150000E941402FE01349620E2DF011D922A95AE
:10216000E9F7C12CD12C7601C394C882D982EA82C6
:10217000FB82F80126A137A14901B12CA12C8C8248
:102180009D82AE82BF82C886D986EA86FB86688B2E
:10219000798B8A8B9B8B2AE038EE4CE151E4668187
:1021A0007781808591850E94281C6C8B7D8B8E8B1E
:1021B0009F8B2AE038EE4CE151E4D8011A966D91DC
:1021C0007D918D919C911D970E94281C688F798F1D
:1021D0008A8F9B8F2AE038EE4CE151E4F801668546
:1021E0007785808991890E94281C6C8F7D8F8E8FC6
:1021F0009F8F81E0DF91CF911F910F91FF90EF9022
:10220000DF90CF90BF90AF909F908F9008950F93E5
:102210001F93CF93DF938C01EB01DC0114968D911A
:102220009C910E94820CF801048115810E94140285
:10223000AB01BC01FE01349680E2DF011D928A955C
:10224000E9F781E090E0A0E0B0E088839983AA8379
:10225000BB83F80180A591A5B0E0A0E08C839D83AD
:10226000AE83BF8384E090E0A0E0B0E088879987E8
:10227000AA87BB87488B598B6A8B7B8B25E33AEF08
:102280004EE85CE362897389848995890E94281CE1
:102290006C8B7D8B8E8B9F8B25E33AEF4EE85CE356
:1022A000D80156966D917D918D919C9159970E9480
:1022B000281C688F798F8A8F9B8F25E33AEF4EE831
:1022C0005CE3F801628D738D848D958D0E94281CCE
:1022D0006C8F7D8F8E8F9F8F81E0DF91CF911F91CB
:1022E0000F9108950F931F93CF93DF938C01EB0110
:1022F00088E2FB0111928A95E9F74BE050E06DE628
:1023000071E0CE010E94151E1B8681E090E0A0E0E6
:10231000B0E08C879D87AE87BF87F801828193816B
:10232000092E000CAA0BBB0B888B998BAA8BBB8B3D
:102330008DE090E0A0E0B0E08C8B9D8BAE8BBF8BEE
:102340001CA21DA21EA21FA280E090E0A0E2B2EC9F
:102350008C8F9D8FAE8FBF8F80E090E0A2EDB2E4B6
:10236000888F998FAA8FBB8F84E09DEAA0E4BBE39E
:1023700088A399A3AAA3BBA3DF91CF911F910F912B
:1023800008950F931F93CF93DF938C01EB0188E2A5
:10239000FB0111928A95E9F74BE050E067E771E0A5
:1023A000CE010E94151E1B8641E050E060E070E007
:1023B0004C875D876E877F87F80182819381092E24
:1023C000000CAA0BBB0B888B998BAA8BBB8B4C8BFD
:1023D0005D8B6E8B7F8B1CA21DA21EA21FA28AE0AA
:1023E00098EEACE1B3EC8C8F9D8FAE8FBF8F8AE0FF
:1023F00098EEACE1B3E4888F998FAA8FBB8F83E20C
:102400009BEDA9E7BDE388A399A3AAA3BBA3DF9192
:10241000CF911F910F9108950F931F93CF93DF9347
:102420008C01EB0188E2FB0111928A95E9F74BE000
:1024300050E061E871E0CE010E94151E1B8681E02C
:1024400090E0A0E0B0E08C879D87AE87BF87F80161
:1024500082819381092E000CAA0BBB0B888B998B70
:10246000AA8BBB8B84E090E0A0E0B0E08C8B9D8BCE
:10247000AE8BBF8B1CA21DA21EA21FA287ED93EAEA
:10248000ABE0B2EC8C8F9D8FAE8FBF8F87ED93EA60
:10249000ABE0B2E4888F998FAA8FBB8F8AE99BEA61
:1024A000ABE0B9E388A399A3AAA3BBA3DF91CF9123
:1024B0001F910F9108951F920F920FB60F92112442
:1024C0002F933F938F939F93AF93BF9380915D0220
:1024D00090915E02A0915F02B091600230915C0227
:1024E00023E0230F2D3758F50196A11DB11D209330
:1024F0005C0280935D0290935E02A0935F02B093B2
:1025000060028091610290916202A0916302B09199
:1025100064020196A11DB11D809361029093620235
:10252000A0936302B0936402BF91AF919F918F918A
:102530003F912F910F900FBE0F901F90189526E896
:10254000230F0296A11DB11DD2CF1F920F920FB67D
:102550000F9211248F939F938091E1009091E1005D
:10256000937F9093E10083FF0FC01092E90091E008
:102570009093EB001092EC0092E39093ED00109298
:10258000720298E09093F00082FF22C093E0909353
:10259000E9009091F200992319F09AE39093E800F2
:1025A00090914F02992341F090914F029150909356
:1025B0004F02911101C05D9A90917102992341F0EF
:1025C00090917102915090937102911101C0289ADB
:1025D00084FF18C08091E2008E7E81608093E200CB
:1025E0008091E1008F7E8093E100809150028E7E89
:1025F0008061809350029F918F910F900FBE0F903A
:102600001F90189580FFF7CF8091E2008E7E806149
:102610008093E2008091E1008E7E8093E1008091C2
:1026200050028E7E8160E5CF1F920F920FB60F92FF
:102630001124CF92DF92EF92FF920F931F932F936B
:102640003F934F935F936F937F938F939F93AF933A
:10265000BF93EF93FF93CF93DF93CDB7DEB76C9724
:10266000DEBFCDBF1092E9008091E80083FF25C056
:1026700068E0CE0145960E94DA0282EF8093E8007E
:102680008D8987FF39C09091E80090FFFCCF982F8B
:10269000907609F034C19E894F89588D2F89F88C26
:1026A000911131C0803861F5809151028093F10021
:1026B0001092F1008EEF8093E8006C960FB6F894BC
:1026C000DEBF0FBECDBFDF91CF91FF91EF91BF91E4
:1026D000AF919F918F917F916F915F914F913F91BA
:1026E0002F911F910F91FF90EF90DF90CF900F905F
:1026F0000FBE0F901F9018959EEF9093E800C7CFE4
:102700001092F100D5CF913059F48111D3CF4130DF
:10271000510581F6809151028D7F80935102CACF7D
:10272000933049F48111C6CF4130510519F680919B
:1027300051028260F2CF953041F48091E80080FF31
:10274000FCCF20682093E300B5CF963009F0A9C0F4
:102750000B8D1C8D22E01092E90010924D02109218
:102760004C02F2122EC010924B0210924A020E94AA
:10277000A9021F8299E09983FA8291E09E8390EAF0
:1027800098879AEF998720914C0230914D02275FEC
:102790003F4F3C832B838D831092E90010924D02B2
:1027A00010924C0210934B0200934A0249E050E011
:1027B000BE016F5F7F4F80E00E9483020E94A902EA
:1027C00079CF10934B0200934A020E942D01DC0145
:1027D00012960D911C910115110509F451C1D801F2
:1027E000ED91FC910480F581E02DBE016B5E7F4F81
:1027F000C8010995009709F03EC1F80100851185CF
:10280000EACFF3E0FF120EC08F89882309F440C09D
:10281000823061F440E860E180E191E00E94500282
:10282000811148CF81E28093EB0047CF813029F4BA
:1028300040E86BE084E091E0F1CF833099F70E94AB
:102840002D01DC011296ED90FC908E010F5F1F4F61
:102850006801E114F10479F0D701ED91FC91068053
:10286000F781E02DB801C7010995080F111DF70187
:10287000E084F184EECFD8011C92F6010190002093
:10288000E9F73197BF016C197D0940E0C601C6CF59
:102890006EEE70E0FB01449150E080E80E948302FC
:1028A00009CF973009F4BECF983021F481E08093AE
:1028B000F10000CF993009F0FDCE837009F0B2CF5E
:1028C000EDE3F1E081E031E096E32191222371F024
:1028D0008093E9003093EB00DF0111972C91209356
:1028E000EC009093ED008F5F873079F78EE780934F
:1028F000EA001092EA008F8980937202DBCE8B8D02
:102900009C8D1092E90010924D0210924C0290930F
:102910004B0280934A02898D811192C08E899D89D4
:10292000913A49F4813209F07DCF47E050E064E00C
:1029300071E080E0B3CF913209F074CF833269F453
:102940008F89988DB0E0A0E0809300019093010101
:10295000A0930201B0930301ADCE803269F480915F
:10296000E80082FFFCCF67E084E091E00E94DA0299
:102970008BEF8093E8009ECE823209F09BCE8F8948
:1029800080930B01EEEFFFE7859194918B3F9C4D77
:1029900051F1E0E0F8E08091040190910501A091EF
:1029A0000601B0910701803B9440A105B105F1F407
:1029B00080910B0180FD1AC0EE3F8AE0F80789F58F
:1029C00087E797E7918380838091600080934E0230
:1029D00088E19BE00FB6F894A895809360000FBE45
:1029E0009093600067CEEEEFFAE0D5CF80819181C1
:1029F0008737974709F05ECEA8958091600088617F
:102A00008093600080914E0280936000EE3F2AE048
:102A1000F20789F08091FE0A9091FF0A91838083EA
:102A200049CE808191818737980751F29093FF0AB0
:102A30008093FE0AC5CF1092FF0A1092FE0A3ACE8A
:102A40000E942D01DC0112960D911C9101151105BA
:102A500009F4E8CED801ED91FC910190F081E02DD0
:102A6000BE016B5E7F4FC8010995811123CEF8012D
:102A700000851185EBCF181619060CF41BCED2CEAB
:102A8000F1E0FF12BECE62EF70E004CF1F920F9212
:102A90000FB60F9211242F933F934F935F936F9331
:102AA0007F938F939F93AF93BF93EF93FF93809107
:102AB000B900887F803609F44AC0F0F5883209F4FD
:102AC000A7C018F5803109F49BC0B8F4882309F435
:102AD000F9C0883009F494C0FF91EF91BF91AF9194
:102AE0009F918F917F916F915F914F913F912F9126
:102AF0000F900FBE0F901F901895883109F488C071
:102B0000803251F78093970214C0803409F49DC03D
:102B100040F48033B9F38833F9F68093970285EC5B
:102B2000B0C0803509F485C0883509F496C0883472
:102B300099F60E941410D0CF883909F48CC038F56A
:102B4000883729F050F4883611F0803729F683E071
:102B5000809399021092290257C0883809F47BC0EB
:102B6000803919F0803809F0B7CF8091290280327E
:102B700008F071C0E091290281E08E0F8093290254
:102B80008091BB00F0E0E75FFD4F80833DC0803B5C
:102B900039F0E0F4803A09F479C0883A09F09CCF22
:102BA00084E0809399021092080210920702E0914B
:102BB0005202F091530209958091070281110FC0D2
:102BC00081E0809307021092E70109C0803C09F47C
:102BD000A6CF883C09F4A3CF883B09F07DCFE091D4
:102BE000080281E08E0F80930802F0E0E951FE4F69
:102BF00080818093BB00909108028091070229C0D8
:102C0000809174028093BB0085EC8093BC0064CFFC
:102C10009091960280919502981758F5E09196024E
:102C200081E08E0F80939602F0E0EB58FD4F80819B
:102C3000E9CFE091960281E08E0F80939602809119
:102C4000BB00F0E0EB58FD4F80839091960280919D
:102C500095029817C8F285E8D8CFE091960281E0F6
:102C60008E0F809396028091BB00F0E0EB58FD4FF1
:102C700080838091980281115CCF81E08093730200
:102C800084EA8093BC001092990226CF85EC809351
:102C9000BC001092990280912902803230F4E091B8
:102CA0002902F0E0E75FFD4F10826091290270E099
:102CB000E0915402F091550289E092E0099510925A
:102CC00029020ACF1092970234CFFC0187819085A8
:102CD000009711F00C948C1D0895FC01878190855C
:102CE000009711F00C948C1D08958FE193E00E94E1
:102CF0006D1688E293E00E946D1681E393E00E94D6
:102D00006D168AE393E00E94651683E493E00E94C7
:102D100065168CE493E00E9465168BE691E0909333
:102D20005603809355038091750390917603009725
:102D300039F0DC01ED91FC910280F381E02D0995E1
:102D40008091770390917803009739F0DC01ED9141
:102D5000FC910280F381E02D099580917903909197
:102D60007A03009739F0DC01ED91FC910280F38148
:102D7000E02D09958091730390917403009711F0F1
:102D80000C948C1D0895E3ECF2E01382128288EE1D
:102D900093E0A0E0B0E084839583A683B78327E423
:102DA00031E0318320832FEF3FEF35872487E3E144
:102DB000F3E01382128284839583A683B78389E527
:102DC00091E091838083E5E5F3E08BE691E09183E8
:102DD0008083178E168E11A210A213A212A215A222
:102DE00014A2ECE4F3E08AE090E092838183148201
:102DF000138216821582E3E4F3E0928381831482C6
:102E0000138216821582EAE3F3E0928381831482AF
:102E1000138216821582E1E3F3E0928381831482A8
:102E2000138216821582E8E2F3E092838183148292
:102E3000138216821582EFE1F3E09283818314827C
:102E40001382168215820895CF93DF93CDB7DEB734
:102E500069970FB6F894DEBF0FBECDBF789484B5E6
:102E6000826084BD84B5816084BD85B5826085BD86
:102E700085B5816085BD80916E00816080936E0014
:102E80001092810080918100826080938100809106
:102E900081008160809381008091800081608093B7
:102EA00080008091910082608093910080919100D8
:102EB0008160809391008091900081608093900068
:102EC0008091C10084608093C1008091C1008260C4
:102ED0008093C1008091C10081608093C100809186
:102EE000C30081608093C3008091C00082608093A2
:102EF000C0008091C20081608093C20080917A00FE
:102F0000846080937A0080917A00826080937A0056
:102F100080917A00816080937A0080917A00806845
:102F200080937A0010927202109251021092500215
:102F30008091D70081608093D70080EA8093D80089
:102F400089B5806189BD89B5826089BD09B400FEFB
:102F5000FDCF61E070E080E090E00E94E2018091AE
:102F6000D8008F7C80618093D8008091E000807FC2
:102F70008093E0008091E1008E7E8093E1008DE0FF
:102F80008093E200559A209A8FEF9FEF9093D002A2
:102F90008093CF0210910B016AE070E080E090E036
:102FA0000E94E201111107C06AE070E080E090E049
:102FB0000E94E201EFCF8091730390917403009718
:102FC00011F00E948C1D86E090E00E94F01CFC0134
:102FD00088E6808383E193E092838183138280E299
:102FE00090E095838483F0937403E093730305E08A
:102FF000F0E2CF2EF2E0DF2EA1E2AA2EA2E0BA2E5E
:1030000011E0E0907303F090740310925702109255
:1030100056021092A0021092C2020E945C05D09249
:103020005302C0925202B0925502A0925402F7018C
:103030001383C7010E946507811117C06AE070E021
:1030400080E090E00E94E2010150D9F68BE891E027
:103050000E94840F87EA91E00E94840F6AE070E08A
:1030600080E090E00E94E201F9CF8091730390919B
:103070007403188A198A1A8A1B8A9A8389831C8284
:103080001B821A8785E790E098878F831B861987B4
:10309000CE0101967C010E949A0B6836710581056C
:1030A0009105A1F640E050E0BA0185E593E00E9469
:1030B000FB0D882359F28091730390917403188A51
:1030C000198A1A8A1B8A9A8389831C821B821A870F
:1030D0008AE190E098878F831B861987FD8AEC8AA6
:1030E00083E0D82EDE8A1F8A46E050E060E070E080
:1030F000CE0144960E94CB0B809173039091740390
:10310000188A198A1A8A1B8A9A8389831C821B82CD
:103110001A879CE1A92EB12CB886AF821B8619872D
:10312000FD8AEC8ADE8A1F8A40E050E0BA01CE01B7
:1031300044960E94CB0B8091730390917403188A7C
:10314000198A1A8A1B8A9A8389831C821B821A878E
:10315000B886AF821B861987FD8AEC8A02E00E8B47
:10316000DF8A43E050E060E070E0CE0144960E94C8
:10317000CB0B8091730390917403188A198A1A8A71
:103180001B8A9A8389831C821B821A872CE6A22EB3
:10319000B12CB886AF821B861987FD8AEC8ADE8A3D
:1031A0001F8A47E050E060E070E0CE0144960E9444
:1031B000CB0B8091730390917403188A198A1A8A31
:1031C0001B8A9A8389831C821B821A873BE6832E83
:1031D000912C98868F821B861987FD8AEC8A1E8B1C
:1031E000DF8A41E050E060E070E0CE0144960E944A
:1031F000CB0B8091730390917403188A198A1A8AF1
:103200001B8A9A8389831C821B821A8798868F82E5
:103210001B861987FD8AEC8A1E8B46E0D42EDF8A36
:1032200040E050E0BA01CE0144960E94CB0B809161
:10323000730390917403188A198A1A8A1B8A9A83D5
:1032400089831C821B821A87B886AF821B861987E6
:10325000FD8AEC8A0E8BDF8A42E050E060E070E08D
:10326000CE0144960E94CB0B00934C035AE0C52E2E
:10327000D12CD0924E03C0924D0384E090E00E9486
:10328000F01C9093540380935303FC01118210822D
:103290001382128200934303D0924503C0924403E9
:1032A00084E090E00E94F01C90934B0380934A03CB
:1032B000FC01118210821382128200933A03D09291
:1032C0003C03C0923B0384E090E00E94F01C90938A
:1032D000420380934103FC01118210821382128207
:1032E000109331036FE0C62ED12CD0923303C092DD
:1032F000320381E393E00E94E00D10932803D09203
:103300002A03C092290388E293E00E94E00D109303
:103310001F03D0922103C09220038FE193E00E940B
:10332000E00D772473947BE3A72EB12C6E2C5F2CD9
:10333000E0E08E2EE0E09E2E0E94140285E593E0F0
:103340000E944F0C8091730390917403188A198A1C
:103350001A8A1B8A9A8389831C821B827A86B88682
:10336000AF821B86798646E0BE016C5E7F4F862D5C
:10337000952D0E94130ACC88DD88DC24CD24DC2422
:10338000D0928203C09281030E891F8910270127E2
:1033900010271093840300938303E88CF98CFE2498
:1033A000EF24FE24F0928603E0928503A6010D2C03
:1033B000000C660B770B81E393E00E94BE08A80126
:1033C000012E000C660B770B88E293E00E94BE088A
:1033D000A7010F2C000C660B770B8FE193E00E9486
:1033E000BE08B6018CE493E00E942708B80183E48C
:1033F00093E00E942708B7018AE393E00E94270820
:103400000E941402009158021091590220915A0210
:1034100030915B02601B710B820B930B6035710561
:103420008105910508F46AC00E9414026093580255
:103430007093590280935A0290935B028AEA91E05A
:103440000E940C1081E393E00E949C090E94910F5E
:1034500082EB91E00E940C1084EB91E00E940C1032
:1034600088E293E00E949C090E94910F82EB91E018
:103470000E940C108CEB91E00E940C108FE193E005
:103480000E949C090E94910F82EB91E00E940C1017
:1034900084EC91E00E940C108CE493E00E945909A6
:1034A000BC01990F880B990B0E94910F82EB91E060
:1034B0000E940C108FEC91E00E940C1083E493E0CA
:1034C0000E945909BC01990F880B990B0E94910F1A
:1034D00082EB91E00E940C108AED91E00E940C10AA
:1034E0008AE393E00E945909BC01990F880B990B5C
:1034F0000E94910F87EA91E00E94840F8114910449
:1035000009F41ACF0E94000017CF5058BB27AA27F2
:103510000E949D1A0C94EE1B0E94E01B38F00E9442
:10352000E71B20F039F49F3F19F426F40C94DD1BBF
:103530000EF4E095E7FB0C94D71BE92F0E94FF1BCC
:1035400058F3BA17620773078407950720F079F4D8
:10355000A6F50C94211C0EF4E0950B2EBA2FA02D8D
:103560000B01B90190010C01CA01A0011124FF2730
:10357000591B99F0593F50F4503E68F11A16F0402B
:10358000A22F232F342F4427585FF3CF469537952A
:103590002795A795F0405395C9F77EF41F16BA0BEF
:1035A000620B730B840BBAF09150A1F0FF0FBB1F9D
:1035B000661F771F881FC2F70EC0BA0F621F731FE6
:1035C000841F48F4879577956795B795F7959E3F43
:1035D00008F0B0CF9395880F08F09927EE0F9795D4
:1035E000879508950E94061B0C94EE1B0E94E71B12
:1035F00058F00E94E01B40F029F45F3F29F00C9442
:10360000D71B51110C94221C0C94DD1B0E94FF1B34
:1036100068F39923B1F3552391F3951B550BBB2701
:10362000AA2762177307840738F09F5F5F4F220F46
:10363000331F441FAA1FA9F335D00E2E3AF0E0E83D
:1036400032D091505040E695001CCAF72BD0FE2F87
:1036500029D0660F771F881FBB1F2617370748071B
:10366000AB07B0E809F0BB0B802DBF01FF279358D3
:103670005F4F3AF09E3F510578F00C94D71B0C94A5
:10368000221C5F3FE4F3983ED4F3869577956795C7
:10369000B795F7959F5FC9F7880F911D9695879508
:1036A00097F90895E1E0660F771F881FBB1F621727
:1036B00073078407BA0720F0621B730B840BBA0BE5
:1036C000EE1F88F7E09508950E946B1B6894B11176
:1036D0000C94221C08950E94071C88F09F5798F0B4
:1036E000B92F9927B751B0F0E1F0660F771F881F07
:1036F000991F1AF0BA95C9F714C0B13091F00E9421
:10370000211CB1E008950C94211C672F782F882785
:10371000B85F39F0B93FCCF3869577956795B39547
:10372000D9F73EF490958095709561957F4F8F4FB6
:103730009F4F0895E89409C097FB3EF490958095BB
:10374000709561957F4F8F4F9F4F9923A9F0F92F67
:1037500096E9BB279395F695879577956795B795E5
:10376000F111F8CFFAF4BB0F11F460FF1BC06F5FCB
:103770007F4F8F4F9F4F16C0882311F096E911C0DD
:10378000772321F09EE8872F762F05C0662371F0FE
:1037900096E8862F70E060E02AF09A95660F771F12
:1037A000881FDAF7880F9695879597F9089597F906
:1037B0009F6780E870E060E008959FEF80EC0895D7
:1037C00000240A9416161706180609060895002400
:1037D0000A9412161306140605060895092E03947A
:1037E000000C11F4882352F0BB0F40F4BF2B11F4EE
:1037F00060FF04C06F5F7F4F8F4F9F4F089557FD4D
:103800009058440F551F59F05F3F71F04795880F4E
:1038100097FB991F61F09F3F79F0879508951216E5
:1038200013061406551FF2CF4695F1DF08C0161691
:1038300017061806991FF1CF869571056105089442
:103840000895E894BB2766277727CB0197F9089559
:103850000E943B1C0C94EE1B0E94E01B38F00E945F
:10386000E71B20F0952311F00C94D71B0C94DD1B63
:1038700011240C94221C0E94FF1B70F3959FC1F32E
:10388000950F50E0551F629FF001729FBB27F00D0E
:10389000B11D639FAA27F00DB11DAA1F649F662763
:1038A000B00DA11D661F829F2227B00DA11D621FB2
:1038B000739FB00DA11D621F839FA00D611D221F6C
:1038C000749F3327A00D611D231F849F600D211D50
:1038D000822F762F6A2F11249F5750409AF0F1F0D3
:1038E00088234AF0EE0FFF1FBB1F661F771F881F3C
:1038F00091505040A9F79E3F510580F00C94D71B82
:103900000C94221C5F3FE4F3983ED4F386957795A0
:103910006795B795F795E7959F5FC1F7FE2B880FE1
:10392000911D9695879597F90895AA1BBB1B51E1A8
:1039300007C0AA1FBB1FA617B70710F0A61BB70B1F
:10394000881F991F5A95A9F780959095BC01CD01C4
:103950000895A1E21A2EAA1BBB1BFD010DC0AA1FD0
:10396000BB1FEE1FFF1FA217B307E407F50720F0E8
:10397000A21BB30BE40BF50B661F771F881F991F63
:103980001A9469F760957095809590959B01AC01AC
:10399000BD01CF010895052E97FB1EF400940E94EF
:1039A000E21C57FD07D00E94A91C07FC03D04EF46F
:1039B0000C94E21C50954095309521953F4F4F4F08
:1039C0005F4F089590958095709561957F4F8F4FCB
:1039D0009F4F0895EE0FFF1F0590F491E02D09947D
:1039E0000F931F93CF93DF938230910510F482E001
:1039F00090E0E0919103F091920330E020E0B0E09C
:103A0000A0E0309799F42115310509F44AC0281B2C
:103A1000390B24303105D8F58A819B8161157105F8
:103A200089F1FB0193838283FE0111C040815181A2
:103A30000281138148175907E0F04817590799F494
:103A4000109761F012960C93129713961C9332966E
:103A5000CF01DF91CF911F910F91089500939103B2
:103A600010939203F4CF2115310551F042175307FB
:103A700038F0A901DB019A01BD01DF01F801C1CFD6
:103A8000EF01F9CF9093920380939103CDCFFE0184
:103A9000E20FF31F819391932250310939832883D8
:103AA000D7CF20918F0330919003232B41F42091A5
:103AB0000E0130910F013093900320938F032091DA
:103AC0000C0130910D012115310541F42DB73EB7A0
:103AD0004091100150911101241B350BE0918F038F
:103AE000F0919003E217F307A0F42E1B3F0B281769
:103AF000390778F0AC014E5F5F4F2417350748F067
:103B00004E0F5F1F5093900340938F0381939193C7
:103B10009FCFF0E0E0E09CCFCF93DF930097E9F0F8
:103B2000FC01329713821282A0919103B09192030B
:103B3000ED0130E020E01097A1F420813181820F67
:103B4000931F20918F03309190032817390709F0B4
:103B500061C0F0939003E0938F03DF91CF910895BC
:103B6000EA01CE17DF07E8F54A815B819E01411526
:103B70005105B1F7E901FB83EA8349915991C40FDB
:103B8000D51FEC17FD0761F4808191810296840FA7
:103B9000951FE90199838883828193819B838A831E
:103BA000F0E0E0E012968D919C9113970097B9F5A3
:103BB0002D913C911197CD010296820F931F209178
:103BC0008F03309190032817390739F6309751F554
:103BD0001092920310929103B0939003A0938F03DD
:103BE000BCCFD383C28340815181840F951FC817F6
:103BF000D90761F44E5F5F4F88819981480F591F43
:103C0000518340838A819B8193838283211531056F
:103C100009F0B0CFF0939203E09391039ECFFD01A2
:103C2000DC01C0CF13821282D7CFFB01DC014150EF
:103C3000504048F001900D920020C9F701C01D923C
:103C400041505040E0F7089510E0C7ECD0E004C0C8
:103C5000FE010E94EA1C2196C83CD107C9F7F894DE
:023C6000FFCF94
:103C6200FFFFFFFF00E100000000000000009303DF
:103C7200800000000000110A1010120A07110C1235
:103C820000000000110A0E10120A9110C11100006A
:103C92000000110A1210120A4C10721100C1808128
:103CA200000000000000006C03E7028D038203D3D2
:103CB200039103AF0300000000F507C80724089E24
:103CC20007C107AE079F0700000000FB0D4D5055CE
:103CD200363035305F54004D5055363035305F4107
:103CE200004D5055363035305F47004661696C658E
:103CF2006420746F2066696E64204D5055363035ED
:103D0200302063686970000D0A00416363656C5876
:103D12003A002C00416363656C593A004163636564
:103D22006C5A3A00416363656C584578703A0041B9
:103D32006363656C594578703A00416363656C5AF8
:063D42004578703A000014
:00000001FF
