:100000000C9405020C942D020C942D020C942D02DC
:100010000C942D020C942D020C942D020C942D02A4
:100020000C942D020C942D020C9475150C94E4156F
:100030000C942D020C942D020C942D020C942D0284
:100040000C942D020C942D020C942D020C942D0274
:100050000C942D020C942D020C942D020C942B1553
:100060000C942D020C942D020C942D020C942D0254
:100070000C942D020C942D020C942D020C942D0244
:100080000C942D020C942D020C942D020C942D0234
:100090000C9416180C942D020C942D020C942D0225
:1000A0000C942D020C942D020C942D02080B0002CE
:1000B0000202000009040000010202000005240001
:1000C0001001052401010104240206052406000193
:1000D0000705810310004009040100020A00000026
:1000E00007050202400000070583024000000403E8
:1000F000090412010002EF02014041233680000191
:100100000102030141726475696E6F204C4C43001B
:1001100041726475696E6F204C656F6E6172646FB9
:1001200000AED580A81FD300408D14A1C8DA02818B
:100130007FD922DB402000A4A6AF000000002400ED
:1001400027002A002D0030000006082000000000D3
:1001500000000000002F000000000700070000144E
:100160007F147F1400242A7F2A120023130864625C
:1001700000364955225000000503000000001C22F3
:100180004100000041221C000014083E0814000831
:10019000083E0808000000A06000000808080808E1
:1001A000000060600000002010080402003E514979
:1001B000453E0000427F4000004261514946002117
:1001C00041454B31001814127F1000274545453931
:1001D000003C4A494930000171090503003649498C
:1001E000493600064949291E000036360000000045
:1001F0005636000000081422410000141414141490
:100200000000412214080002015109060032495938
:10021000513E007C1211127C007F49494936003E54
:1002200041414122007F4141221C007F494949410F
:10023000007F09090901003E4149497A007F080809
:10024000087F0000417F4100002040413F01007FC6
:1002500008142241007F40404040007F020C027F92
:10026000007F0408107F003E4141413E007F0909A4
:100270000906003E4151215E007F091929460046CA
:10028000494949310001017F0101003F4040403FA1
:10029000001F2040201F003F4038403F00631408EB
:1002A00014630007087008070061514945430000C6
:1002B0007F41410000552A552A55000041417F00E9
:1002C00000040201020400404040404000000102DE
:1002D0000400002054545478007F484444380038C7
:1002E0004444442000384444487F0038545454184F
:1002F00000087E0901020018A4A4A47C007F080461
:1003000004780000447D4000004080847D00007F30
:10031000102844000000417F4000007C041804784D
:10032000007C0804047800384444443800FC242449
:1003300024180018242418FC007C08040408004831
:100340005454542000043F444020003C4040207C52
:10035000001C2040201C003C4030403C0044281041
:100360002844001CA0A0A07C004464544C4400001D
:10037000087700000000007F000000007708000000
:1003800000100810080014141414141400000000C5
:10039000002300260029002C002F0000000000256B
:1003A0000028002B002E0031000404040404030480
:1003B0000502020202040302020202060606060603
:1003C00006040402020204040408020110408040F2
:1003D000102040804080080204018040201002016B
:1003E000108010204040200000000200090F000093
:1003F000030401000C0000000000000000000000E9
:100400000000000000007F193D1911241FBECFEF2E
:10041000DAE0DEBFCDBF12E0A0E0B1E0E0E6F4E557
:1004200002C005900D92AA31B107D9F725E0AAE1E3
:10043000B2E001C01D92AA3CB207E1F712E0C4E0AD
:10044000D2E004C02197FE010E941126C330D107DB
:10045000C9F70E94D2190C94232A0C940000089525
:100460000895FC0180912C03882311F13FB7F89483
:1004700082E08093E9002091F200822F90E018162C
:10048000190614F481E090E0882339F0289844E6B6
:1004900040932B034091F1004083222339F02091B7
:1004A000F200211103C02BE62093E8003FBF08951E
:1004B0008FEF9FEF08952FB7F89483E08093E900C2
:1004C0009091E800892F807295FF04C09091F2000E
:1004D00080E4891B2FBF08958091230381110DC0F3
:1004E00082E080931F0384E0809320031092220314
:1004F0001092210381E0809323038FE193E008951C
:1005000081508F3008F047C0E82FF0E0E657FD4FEC
:100510000C941126A702AB0299029F02A302CB0200
:10052000CB02CB02AE02B402B802BC02C202CB02C2
:10053000C602809180008F7780938000089580911B
:1005400080008F7DF9CF80918000877FF5CF84B5C3
:100550008F7784BD089584B58F7DFBCF8091900007
:100560008F77809390000895809190008F7DF9CFD0
:1005700080919000877FF5CF8091C0008F77809326
:10058000C00008958091C0008F7DF9CF8091C20096
:10059000877F8093C20008951F93CF93DF93282F06
:1005A00030E0F901E951FC4F8491F901E853FC4F27
:1005B000D491F901E755FC4FC491CC23A9F0162F33
:1005C00081110E948002EC2FF0E0EE0FFF1FE55634
:1005D000FC4FA591B4918FB7F894EC91111108C01C
:1005E000D095DE23DC938FBFDF91CF911F910895CB
:1005F000DE2BF8CF8230910538F0880F991F880FD5
:10060000991F05970197F1F708953FB7F8948091E6
:100610001B0390911C03A0911D03B0911E0326B5EE
:10062000A89B05C02F3F19F00196A11DB11D3FBF2A
:10063000BA2FA92F982F8827BC01CD01620F711DF9
:10064000811D911D42E0660F771F881F991F4A95F3
:10065000D1F708958F929F92AF92BF92CF92DF927F
:10066000EF92FF924B015C010E9405036B017C013C
:100670000E9405036C197D098E099F09683E73402D
:1006800081059105A8F321E0821A9108A108B1081B
:1006900088EEC80E83E0D81EE11CF11C8114910481
:1006A000A104B10429F7FF90EF90DF90CF90BF90A5
:1006B000AF909F908F9008952FB7F8946091170393
:1006C000709118038091190390911A032FBF089518
:1006D00008950895089540918102509182022091D9
:1006E0007F023091800242175307B4F49091E800E2
:1006F0009570E1F39091E80092FD19C08093F100AC
:10070000809181029091820201968F739927892BA3
:1007100019F48EEF8093E80080918102909182021B
:100720000196909382028093810281E0089580E097
:100730000895EF92FF920F931F93CF93DF93F82EBC
:10074000192FE62E042F81E0860F880F0E946B037D
:1007500083E00E946B03CF2DD12FEC0EFD2EF11CF8
:10076000CE15DF05B9F007FF13C0FE0184910E948A
:100770006B03182F80E00E946B0381232196811167
:10078000EFCFDF91CF911F910F91FF90EF900895E0
:100790008881EDCF81E0F5CFDF92EF92FF920F934A
:1007A0001F93CF93DF93D82E8A01EB017B01E40ED8
:1007B000F51ECE15DF0559F0D7FE12C0FE0184915B
:1007C0000E946B0321968111F4CF0FEF1FEFC80138
:1007D000DF91CF911F910F91FF90EF90DF900895DF
:1007E0008881EECF0F931F93CF93DF931F92CDB7E6
:1007F000DEB782E0898342E450E06CEA70E080E892
:100800000E94CC030E946C02DC0112960D911C9197
:100810000115110589F0D801ED91FC910280F38159
:10082000E02DBE016F5F7F4FC801099597FD04C0A1
:10083000F80100851185ECCF89810F90DF91CF9170
:100840001F910F910895615030F02091F100FC014B
:1008500020830196F8CF289884E680932B0308958F
:100860008F929F92AF92BF92CF92DF92EF92FF92C0
:100870000F931F93CF93DF936C017B018A018091CB
:100880000B01882309F45CC080912C03882309F4B0
:1008900057C08091850280FF05C08091E000826092
:1008A0008093E000E801B12C8AEFA82E93E0892E16
:1008B0002AE3922E209711F4BB20D9F10E945B020B
:1008C00081110AC0AA94AA20D9F161E070E080E009
:1008D00090E00E942A03EECF8C171D0611F00CF059
:1008E0008C2F9FB7F8948092E9002091E80025FDB5
:1008F00002C09FBFDFCF282F30E0C21BD30BF70110
:10090000815020F041914093F100FACFE20EF31EA6
:10091000BB2021F09092E800B12CEBCF8091E80051
:1009200085FDE7CF9092E800BB24B394209709F3AC
:10093000F3CF5D9884E680938402101611063CF094
:1009400081E090E0F6019383828310E000E0C8012B
:10095000DF91CF911F910F91FF90EF90DF90CF909B
:10096000BF90AF909F908F900895CF93DF931F9289
:10097000CDB7DEB76983DC01ED91FC910280F38194
:10098000E02D41E050E0BE016F5F7F4F09950F9071
:10099000DF91CF91089583E08093E9008091F20088
:1009A000882319F08AE38093E80008950E945B028F
:1009B00090E00895CF93DF931F92CDB7DEB7FC018F
:1009C0008485958597FD08C02FEF3FEF35872487F5
:1009D0000F90DF91CF910895CE0101960E943102D0
:1009E000019719F4898190E0F3CF8FEF9FEFF0CF5B
:1009F0000F931F93CF93DF931F92CDB7DEB78C0178
:100A0000FC018485958597FF0BC0CE0101960E945D
:100A10003102019771F4898190E0F801958784870C
:100A2000F801848595850F90DF91CF911F910F91EB
:100A300008958FEF9FEFF1CFFC018485958597FD99
:100A40000BC09FB7F89482E08093E9008091F20098
:100A50009FBF90E0019608959FB7F89482E080933D
:100A6000E9008091F2009FBF90E0089580910C0111
:100A700091E090935F038093810310926003109242
:100A8000820310927E02089540919502FC01249108
:100A90003196E491322F2E2FFC013296E491E11130
:100AA00003C090E080E0089503966217730730F06A
:100AB000D901AE0FB11D6A177B0728F0E49F800DA6
:100AC000911D1124E3CF621B730B469F9001479F3A
:100AD000300D1124820F931F08956091960270913A
:100AE0009702282F880F330B80919202281B31091F
:100AF00080919502829FA001839F500D11248091C7
:100B00008F02813039F090E080E0840F951F860FCE
:100B1000971F089583E090E0F8CF0F931F93CF9332
:100B2000DF936115710561F1EB018C0180919002F9
:100B300088838091910289831A8280919602909194
:100B400097020038110550F420918F02211106C040
:100B5000892B31F0802F0E946D0510C0009749F459
:100B60008091980290919902009779F48091920275
:100B7000F2CFB8010E944405009791F39C838B83C8
:100B8000DF91CF911F910F910895B8010E94440504
:100B90000097A1F7EBCF0F931F93CF93DF93E091D3
:100BA000A002F091A10250E040E070E060E090E02F
:100BB00080E00995C0919E02D0919F0283E0D69576
:100BC000C7958A95E1F7209749F4E0911001F091DB
:100BD0001101DF91CF911F910F91099400919C0217
:100BE00010919D020115110539F4E091A202F091D6
:100BF000A30209952197E7CFE091A402F091A50205
:100C000080E0099501501109EDCF0F931F93CF9309
:100C1000DF93EC018C01060F171FC017D10729F4D1
:100C2000DF91CF911F910F910895E0911201F09102
:100C3000130189910995F1CF682F85E00C94CC02BE
:100C40000F931F93CF93DF93182F062FEA01E091A4
:100C50000E01F0910F01099580910D01882309F48F
:100C600042C080E00E941C06E0911201F091130145
:100C700081E20995E0911201F0911301812F09950C
:100C8000E0911201F09113018C2F8150810FCD2B37
:100C900019F480919C0281500995E0911201F09124
:100CA000130182E20995E0911201F0911301802F66
:100CB000099580919E0290919F0223E096958795D9
:100CC0002A95E1F7E0911201F09113018150099505
:100CD00080910D01882371F081E0DF91CF911F9108
:100CE0000F910C941C06E0911201F091130180E029
:100CF0000995BACFE0911001F09111010995E091A9
:100D00000E01F0910F010995E0911201F09113018C
:100D100080E4DF91CF911F910F910994FC018385AD
:100D20008F3F19F061E00C94CC020895FC018081A2
:100D30009181892B39F0A281B3819C9111968C917C
:100D40009CBD8DBD83858F3F19F060E00C94CC0273
:100D50000895AF92BF92CF92DF92EF92FF920F93DE
:100D60001F93CF93DF93EC0188819981892B89F0C0
:100D70006EBD0DB407FEFDCFBEB48B2DDF91CF91BC
:100D80001F910F91FF90EF90DF90CF90BF90AF90A9
:100D900008958885998511E0892B09F010E8AA2427
:100DA000A394862F812309F0A12C062F2C813D814D
:100DB0004E815F8160E271EA87E090E00E94EF255A
:100DC000F22EB02EE12CC22ED12CFF2019F0C6013C
:100DD0000E94FA028A85877F09F042C08D858F3F85
:100DE00089F0902F912381E009F480E08A1551F079
:100DF000EF85F8898F89992369F19081892B808308
:100E0000AA24A394E989FA898081998D892B80830A
:100E1000FF2019F0C6010E94FA028E858F3F39F03B
:100E2000EB89FC898081988D892309F0E12AE98981
:100E3000FA899081898D8095892380838E858F3F63
:100E400009F0BE2C88859985892BB9F5110F1111F0
:100E5000BCCF93CF9081809589238083A12CD2CF62
:100E6000E989FA898081998D892B8083FF2019F087
:100E7000C6010E94FA028D858F3F49F0EF85F889FF
:100E80008F89902F9123A9F09081892B8083E98904
:100E9000FA899081898D8095892380838E858F3F03
:100EA00069F2EB89FC898081988D892339F2E12AE6
:100EB000C5CF908180958923E9CF1695C8CF8F92B1
:100EC0009F92AF92BF92CF92DF92EF92FF920F93D9
:100ED0001F93CF93DF937C014B016A01B22EA32EA7
:100EE0000E949606E401C80CD91CCC15DD0569F4F6
:100EF000CB2DDA2D0C0F1D1FC017D10759F06FEF46
:100F0000C7010E94A9068993F7CF6991C7010E9482
:100F1000A906EBCFC7010E948E0681E0DF91CF9139
:100F20001F910F91FF90EF90DF90CF90BF90AF9007
:100F30009F908F9008958F929F92AF92BF92CF9281
:100F4000DF92EF92FF920F931F93CF93DF937C0179
:100F5000B62EA72E6A0149010E949606E401080DEB
:100F6000191DC017D10761F4CB2DDA2DCC0EDD1E73
:100F7000CC15DD0551F06991C7010E94A906F8CF93
:100F80006991C7010E94A906ECCFC7010E948E0695
:100F900081E0DF91CF911F910F91FF90EF90DF9053
:100FA000CF90BF90AF909F908F90089520913B027B
:100FB000260F3327331F21323105ECF420915903DA
:100FC000FC0190E080E0243069F082E00895A09177
:100FD0003B022191AC01455E5D4FA40FB52FB11DC1
:100FE0002C930196861798F380913B02680F6093CB
:100FF0003B0280E0089581E008951092590381E05A
:10100000809358031092330361E082E00E94CC0287
:1010100061E083E00E94CC02E9EBF0E080818E7F0A
:10102000808380818D7F808388E48093B80085E40D
:101030008093BC00089510923203109231031092F5
:101040006003109282030E94FD078FE292E090936A
:10105000300380932F0380E392E090932E038093DC
:101060002D030895CF93DF9391E090931A02882384
:10107000B9F0C091B800D091BA008091BC008A7BD1
:101080008093BC0060E082E00E94CC0260E083E0DC
:101090000E94CC020E94FD07D093BA00C093B80012
:1010A000DF91CF9108958F929F92AF92BF92CF928E
:1010B000DF92EF92FF920F931F93CF93DF93D09124
:1010C0008203D13208F0D7C0182FC09181030E944B
:1010D00005036B017C018091590381116BC082E093
:1010E00080935903109358038FEF80935703109206
:1010F0005603D0935503A1E6B3E0E5E3F3E080E0C7
:10110000D81391C01092340380913403CC0FC82BB4
:10111000C093340380913303813009F088C010926A
:1011200033030E9405036B017C018091340380939B
:10113000BB0080915B0390915C03A0915D03B09133
:101140005E03892B8A2B8B2BA1F00E940503009153
:101150005B0310915C0320915D0330915E036C1979
:101160007D098E099F09061717072807390708F414
:1011700042C08091BC0083FDD8CF85EC8093BC0039
:101180000E9405036B017C0180915903823009F4B0
:1011900050C0809157038F3F09F46FC0809157036F
:1011A000803209F46CC080915703803309F469C020
:1011B00084E026C080915B0390915C03A0915D0365
:1011C000B0915E03892B8A2B8B2B09F484CF0E946C
:1011D000050380905B0390905C03A0905D03B0904A
:1011E0005E036C197D098E099F0986169706A8066D
:1011F000B90608F070CF80915A030E94320885E04A
:10120000109260031092820310925F03DF91CF91DE
:101210001F910F91FF90EF90DF90CF90BF90AF9014
:101220009F908F9008959D9191938F5F69CF85EEE8
:10123000A5CF80915B0390915C03A0915D03B09179
:101240005E03892B8A2B8B2B09F49ECF0E9405030A
:1012500000915B0310915C0320915D0330915E036C
:101260006C197D098E099F0906171707280739078A
:1012700008F08ACFC0CF81E0C3CF80E0C1CF82E049
:10128000BFCF83E0BDCFCF93DF93EC018B81882369
:10129000A1F0888191E090935F0380938103109285
:1012A00060031092820381E00E94530891E0811153
:1012B00090E0892FDF91CF9108950E941B0881E073
:1012C0008B83CE010E944309982F8111E2CFF1CF89
:1012D00081E00C945308CF93C82F80917E028E3109
:1012E00038F00E9468090E94360580E40E946B096C
:1012F0008091870290918802DC01ED91FC91019030
:10130000F081E02D6C2F099580917E028F5F809394
:101310007E02CF9108950F931F93CF93DF93EC013B
:101320008C01060F171FC017D10721F089910E9469
:101330006B09F9CFDF91CF911F910F9108951F9302
:10134000CF93DF93EA01122FDC0111968D919C91CE
:10135000DC01ED91FC910280F381E02D0995C81725
:10136000D90729F4812F0E94530891E0811190E060
:10137000892FDF91CF911F910895AF92BF92CF92A5
:10138000DF92EF92FF920F931F93CF93DF9300D0E2
:10139000CDB7DEB7DC01211103C018962C91189748
:1013A000253008F043C01F964D935D936D937C9359
:1013B000529790E080E0E22EF12C8E159F05B4F458
:1013C0001A962C911A9721110AC0FD01E80FF91FF6
:1013D0004387452F562F672F77270196EECFF701CA
:1013E000E81BF90BEA0FFB1F4287F3CF6D018BE07F
:1013F000C80ED11C16969C91169717968C9117972C
:1014000099838A83AD90BC901197A114B10409F41B
:1014100041C019960C9110E098012E0D3F1DD50189
:1014200014968D919C918217930710F480E016C05A
:10143000F50181819281208131E030935F03209317
:10144000810310926003109282030115110599F433
:1014500021E0A701B601C5010E949F090F900F90DE
:10146000DF91CF911F910F91FF90EF90DF90CF9080
:10147000BF90AF900895DC01ED91FC910280F38163
:10148000E02DA801BE016F5F7F4F0995081719076E
:1014900069F6DECF1296ED91FC911397309731F2F9
:1014A00014962D913C91159719960C9110E02330CC
:1014B000310571F48E7F89839A830F5F1F4F9E01E0
:1014C0002F5F3F4FA701B601CF010E949B07C6CFF8
:1014D0002115310519F49F779983F1CF2230310519
:1014E00011F49068F9CF2130310549F79F77906466
:1014F000F3CF0895E091320380913103E81730F47F
:10150000F0E0E25AFD4F808190E008958FEF9FEF69
:10151000089590913203809131032FEF3FEF981798
:1015200048F4E92FF0E0E25AFD4F208130E09F5F60
:1015300090933203C9010895809131039091320351
:10154000891B990B0895CF92DF92EF92FF920F9330
:101550001F93CF93DF937C01CB018A0120915F031E
:10156000222389F0EB016B01C40ED51ECC15DD05DD
:1015700069F06991D701ED91FC910190F081E02D26
:10158000C7010995F3CF642F0E94D607C801DF91E8
:10159000CF911F910F91FF90EF90DF90CF90089522
:1015A000CF93DF931F92CDB7DEB7698320915F039E
:1015B0002223F9F020918203203258F021E030E01C
:1015C000FC013383228390E080E00F90DF91CF9184
:1015D000089580916003E82FF0E0EF59FC4F998166
:1015E00090838F5F809360038093820381E090E01B
:1015F000ECCF61E0CE0101960E94D607F7CF90E0D4
:1016000080E008958F929F92AF92BF92CF92DF9227
:10161000EF92FF920F931F93CF93DF93FC01808192
:10162000813021F0823099F180E020C0858196815F
:10163000218132818217930718F40196968385835E
:1016400083819481880F991FA781B085A80FB91F46
:101650006D937C9383819481218132812150310962
:101660008217930781F41482138281E0DF91CF9176
:101670001F910F91FF90EF90DF90CF90BF90AF90B0
:101680009F908F900895019694838383EECFEB0112
:101690000781108585819681892B59F481E090E03E
:1016A00096838583F80171836083F801D383C283B5
:1016B000DCCF6181728190E080E00E94672420E0AD
:1016C00030E048EC52E40E94BF236B017C01F8013A
:1016D00060817181072E000C880B990B0E94692490
:1016E0004B015C01A701960160E070E080E89FE398
:1016F0000E944D239B01AC01C501B4010E940E253F
:101700004B015C01BE010D2E000C880B990B0E9451
:101710006924A70196010E940E259B01AC01C50119
:10172000B4010E944E230E943124F801718360832A
:10173000BCCFEF92FF920F931F93CF93DF93FC01E7
:101740008081813029F0823051F130E020E02CC0DE
:1017500005811681D0E0C0E0F12CE12C30E020E0E2
:10176000C017D10709F1A781B085CE01880F991F55
:10177000A80FB91F8D919C91B8010E94DB258E0D99
:101780009F1D260F371F7C010817190730F4B80179
:101790000E94DB257C01260F371F2196E1CF0780B1
:1017A000F085E02D20813181C901DF91CF911F911A
:1017B0000F91FF90EF900895089508952F923F9212
:1017C0004F925F926F927F928F929F92AF92BF9251
:1017D000CF92DF92EF92FF920F931F93CF93DF93FD
:1017E00000D000D0CDB7DEB7FC014B01042F9681AD
:1017F000878199838A83208031802114310409F400
:1018000039C1418550E0D10114968D919C91841786
:101810009507C8F4B12C8B2D0F900F900F900F905F
:10182000DF91CF911F910F91FF90EF90DF90CF90BC
:10183000BF90AF909F908F907F906F905F904F90F0
:101840003F902F900895F101808191E090935F0384
:1018500080938103109260031092820320E0BE0106
:101860006F5F7F4FC1010E949F09B82E882391F2BC
:10187000802F90E09C838B83D12CC12C01E0AB8125
:10188000BC81CA16DB0638F6F101848195817D01A1
:10189000EC18FD088E159F0508F47C01D101AC9071
:1018A0000E9405032B013C0180915903811172C0F4
:1018B0001E2D113208F010E20093590321E08B81B4
:1018C0009C818E199F09C816D90608F420E0209340
:1018D0005803BFEFB0935703109256038FEF810F59
:1018E000809355030093340380913403AA0CA82AF3
:1018F000A092340380913303813009F092C010929A
:1019000033030E9405032B013C0180913403809333
:10191000BB0080915B0390915C03A0915D03B0914B
:101920005E03892B8A2B8B2BA1F00E94050320914B
:101930005B0330915C0340915D0350915E03641939
:10194000750986099709261737074807590708F4C4
:1019500042C08091BC0083FDD8CFE5ECE093BC0091
:101960000E9405032B013C0180915903813009F449
:101970005CC080915603811710F410915603A5E3C3
:10198000B3E0EEE5F2E080E0811751F19D91919393
:101990008F5FFACF80915B0390915C03A0915D0310
:1019A000B0915E03892B8A2B8B2B09F47DCF0E948B
:1019B000050320915B0330915C0340915D035091DE
:1019C0005E036419750986099709261737074807C2
:1019D000590708F069CF80915A030E94320810E03D
:1019E00010923203109331031E151F0409F012CF19
:1019F00034016C0C7D1C2301C201861997098E15D8
:101A00009F05A8F5D10111968D919C91DC01ED9176
:101A1000FC910284F385E02D0995F20181932F0159
:101A2000EBCFF5EEF093BC009BCF80915B039091E0
:101A30005C03A0915D03B0915E03892B8A2B8B2BF5
:101A400009F492CF0E94050320915B0330915C035F
:101A500040915D0350915E036419750986099709E9
:101A6000261737074807590708F07ECFB4CFCE0CAA
:101A7000DF1C05CFA281B381109709F4CBCE24815E
:101A8000358110E0418550E02330310571F48160EB
:101A900089839A834F5F5F4F9401BE016F5F7F4FD1
:101AA000CD010E945F07B82EB6CE2115310519F47D
:101AB00090689983F1CF2230310511F49F77F9CFE7
:101AC0002130310549F7906CF4CFCF93DF93EC01CF
:101AD000BC01655F7F4F48850E94DE0B882301F1C2
:101AE000488550E030E020E060E070E0CB01241752
:101AF0003507CCF4982F872F762F6627EA85E111DA
:101B00000AC0FA01E21BF30BEC0FFD1FE2856E2BFE
:101B10002F5F3F4FECCFFE01E20FF31FE385F7CFBE
:101B20006FEF7FEFCB01DF91CF9108958F929F925E
:101B3000AF92BF92CF92DF92EF92FF920F931F93DB
:101B4000CF93DF93EC014A015B01888199810E9468
:101B5000650D2A8101E010E002C0000F111F2A95D7
:101B6000E2F701501109012E000C220B330BAB815F
:101B7000680179010A2E04C0CC0CDD1CEE1CFF1C90
:101B80000A94D2F7C094D094E094F094C622D7225D
:101B9000E822F922E881F981B901A80148215921F7
:101BA0006A217B2104C0440F551F661F771FAA9529
:101BB000D2F74C295D296E297F292085CF01DF913D
:101BC000CF911F910F91FF90EF90DF90CF90BF903A
:101BD000AF909F908F900C94BD090F931F93CF935C
:101BE000DF93EC01888199810E94650DAB01BC01F6
:101BF0002A8181E090E002C0880F991F2A95E2F7C0
:101C00000197092E000CAA0BBB0B2B8104C0769503
:101C10006795579547952A95D2F78C019D01042326
:101C2000152326233723C901B801DF91CF911F91D6
:101C30000F910895CF93DF93CDB7DEB767970FB6B7
:101C4000F894DEBF0FBECDBFFC01868D978D188A3C
:101C5000198A1A8A1B8A9A8389831C821B8281E0D3
:101C60008A872CE130E038872F831B868987CE0155
:101C700001969D8B8C8B82E08E8B83E08F8BCE01C7
:101C800044960E94ED0DCB0167960FB6F894DEBF27
:101C90000FBECDBFDF91CF910895CF92DF92EF922B
:101CA000FF920F931F93CF93DF93CDB7DEB7E897E3
:101CB0000FB6F894DEBF0FBECDBF8C01FC01868D40
:101CC000978D1BA21CA21DA21EA29D8B8C8B1F8A0E
:101CD0001E8A81E08D8F8BE390E09B8F8A8F1E8E12
:101CE0008EE08C8F4EE0BE01695D7F4FCE01449641
:101CF0000E94DE0B8FA198A5982789279827F801C5
:101D000095A784A789A59AA598278927982797A793
:101D100086A78BA59CA598278927982791AB80AB90
:101D20006DA57EA576276727762773AB62AB8FA557
:101D300098A998278927982795AB84AB89A99AA950
:101D400098278927982797AB86AB8BA99CA99827BA
:101D50008927982791AF80AF072E000C880B990B2D
:101D60000E94692420E030E04AEA53E40E94BF2345
:101D700028EB3EE142E152E40E944E23F8016283E7
:101D8000738384839583C8010E941A0EC12CD12CC1
:101D9000E12CE5E4FE2E83309105F9F0C12CD12C25
:101DA00070E8E72E75E4F72E82309105B1F0C12C72
:101DB000D12CE12C66E4F62E8130910571F0C12C16
:101DC000D12CF0E8EF2EFFE3FF2E892B31F4C12C4C
:101DD000D12C50E8E52E56E4F52EF80164A575A542
:101DE000072E000C880B990B0E946924A70196010D
:101DF0000E94BF23F801668377838087918766A559
:101E000077A5072E000C880B990B0E946924A70167
:101E100096010E94BF23F8016287738784879587A4
:101E200060A971A9072E000C880B990B0E946924E8
:101E3000A70196010E94BF23F80166877787808BF0
:101E4000918B868D978D188A198A1A8A1B8A9A8394
:101E500089831C821B8281E08A872BE130E03887EE
:101E60002F831B868987CE0101969EAB8DAB82E0C6
:101E70008FAB83E088AFCE01C5960E94ED0DC12CDB
:101E8000D12C33E0E32E33E4F32E6115710501F11B
:101E9000C12CD12C22E8E22E22E4F22E6130710511
:101EA000B9F0C12CD12CE12C92E4F92E62307105ED
:101EB00079F0C12CD12C40E8E42E4FE3F42E6330AE
:101EC000710531F4C12CD12C80E8E82E81E4F82E84
:101ED000F80164A975A9072E000C880B990B0E94C4
:101EE0006924A70196010E94BF23F801628B738BBE
:101EF000848B958B66A977A9072E000C880B990B0C
:101F00000E946924A70196010E94BF23F801668BF5
:101F1000778B808F918F60AD71AD072E000C880B91
:101F2000990B0E946924A70196010E94BF23F80122
:101F3000628F738F848F958FE8960FB6F894DEBF0B
:101F40000FBECDBFDF91CF911F910F91FF90EF900A
:101F5000DF90CF900895CF93DF93EC018CE390E076
:101F60000E9417268F839887FC012D813E8190E087
:101F700080E08217930721F0119211920196F9CF18
:101F800081E0DF91CF9108959F92AF92BF92CF925F
:101F9000DF92EF92FF920F931F93CF93DF93CDB712
:101FA000DEB7AA970FB6F894DEBF0FBECDBF8C0187
:101FB000DC0197965C934E939697CA010196999689
:101FC0009C938E9398974E5F5F4F9B965C934E9336
:101FD0009A975E962D913C911BA21CA21DA21EA257
:101FE0003D8B2C8B1F8A1E8A81E08D8F4BE650E043
:101FF0005B8F4A8F1E8E8C8F188A198A1A8A1B8AC9
:102000003A8329831C821B828A8728E630E038873E
:102010002F831B8689875E01B4E1AB0EB11CB8A685
:10202000AFA289A787E08AA741E050E060E070E0B6
:10203000CE0187960E94960DCE0187960E94ED0DE7
:10204000613071058105910539F461E070E080E04F
:1020500090E00E942A03F0CF64E670E080E090E018
:102060000E942A0320E047E050E060E070E0FE01BB
:1020700031966F01CF010E94BD0964E670E080E0F7
:1020800090E00E942A03D8015E968D919C91188A57
:10209000198A1A8A1B8A9A8389831C821B82FF24CD
:1020A000F394FA8689E190E098878F831B86F986FE
:1020B00020E040E050E0BA01C6010E94BD09F801ED
:1020C000868D978D188A198A1A8A1B8A9A83898322
:1020D0001C821B82FA868AE190E098878F831B8698
:1020E000F986DD8ACC8A83E0E82EEE8A1F8A40E0FA
:1020F00050E0BA01C5010E94960DD8015E968D91FF
:102100009C91188A198A1A8A1B8A9A8389831C824D
:102110001B82FA868BE190E098878F831B86F98675
:10212000DD8ACC8A92E0992E9E8AEF8A41E050E0C7
:1021300060E070E0C5010E94960DF801868D978DD4
:10214000188A198A1A8A1B8A9A8389831C821B829D
:10215000FA868CE190E098878F831B86F986DD8A6A
:10216000CC8A9E8AEF8A40E050E0BA01C5010E9405
:10217000960DD8015E968D919C91188A198A1A8ABB
:102180001B8A9A8389831C821B82FA868BE690E0E5
:1021900098878F831B86F98620E041E050E060E05D
:1021A00070E0C6010E94BD0964E670E080E090E046
:1021B0000E942A03F80180A191A1009739F0DC0167
:1021C000ED91FC910280F381E02D0995F80182A147
:1021D00093A1009739F0DC01ED91FC910280F3812D
:1021E000E02D0995F80184A195A1009739F0DC0153
:1021F000ED91FC910280F381E02D099586E090E05D
:102200000E941726FC0181E491E09183808380E5A0
:1022100096E09383828315830483D8019196FC937F
:10222000EE93909786E090E00E941726FC0183E3EE
:1022300091E09183808381E596E093838283158387
:102240000483D8019396FC93EE93929786E090E0F6
:102250000E941726FC0185E291E09183808382E54C
:1022600096E09383828315830483D8019596FC932B
:10227000EE93949781E0AA960FB6F894DEBF0FBE56
:10228000CDBFDF91CF911F910F91FF90EF90DF9025
:10229000CF90BF90AF909F900895FC0101900020D7
:1022A000E9F73197AF01481B590BBC0183E893E074
:1022B0000C9430048F929F92AF92BF920F931F9312
:1022C000CF93DF93CDB7DEB7A1970FB6F894DEBFFB
:1022D0000FBECDBF19A2423008F44AE08E010F5D57
:1022E0001F4F842E912CB12CA12CA50194010E948A
:1022F000EF25E62FB901CA01EA30F4F4E05DD80118
:10230000EE938D01232B242B252B79F790E080E091
:10231000109719F0CD010E944D11A1960FB6F894B7
:10232000DEBF0FBECDBFDF91CF911F910F91BF9048
:10233000AF909F908F900895E95CE1CF4F925F92AC
:102340006F927F928F929F92AF92BF92CF92DF92C5
:10235000EF92FF926B017C01AC019B010E94C125B1
:102360008823C1F08CE791E00E944D117C0188E840
:1023700091E00E944D118E0D9F1DFF90EF90DF9018
:10238000CF90BF90AF909F908F907F906F905F9015
:102390004F90089546015701E894B7F82FEF3FEFAB
:1023A0004FE75FE7C501B4010E94C12581110DC04F
:1023B0002FEF3FEF4FE75FE7C501B4010E94BA235B
:1023C00018161CF480E891E0CFCF2FEF3FEF4FE7D6
:1023D0005FE4C701B6010E94092518161CF484E8C1
:1023E00091E0C2CF2FEF3FEF4FE75FECC701B6019F
:1023F0000E94BA2387FDF3CF20E030E0A901C70196
:10240000B6010E94BA23B12CA12C87FF0AC06DE24D
:1024100083E893E00E94B5045C01F7FAF094F7F8C2
:10242000F0942AE037ED43EA5BE3C701B6010E946E
:102430004E232B013C010E9438246B017C010E9439
:1024400067249B01AC01C301B2010E944D232B0103
:102450003C014AE0C701B6010E945A117C01EA0C16
:10246000FB1C6EE283E893E00E94B504E80EF91EBF
:1024700020E030E040E251E4C301B2010E940E25A9
:102480002B013C010E9438244B01B12CA12C4AE0C5
:10249000C501B4010E945A11E80EF91EC501B4012C
:1024A0000E9467249B01AC01C301B2010E944D232D
:1024B00020E030E040E251E40E940E250E943824E2
:1024C00090E080E04AE00E945A11E80EF91E4FCFDA
:1024D000CF93DF930E944D11EC0188E891E00E94B8
:1024E0004D118C0F9D1FDF91CF9108958F929F9278
:1024F000AF92BF92CF92DF92EF92FF920F931F9312
:10250000CF93DF93C0916F05D09170058FEDA82E0A
:1025100083E0B82E10E000E0C12CD12C7601C0176A
:10252000D10779F0F50121913191419151915F01EC
:10253000C701B6010E944E236B017C010F5F1F4F44
:10254000EECFBE0190E080E00E9467249B01AC01C9
:10255000C701B6010E94BF234B015C018BE891E0EB
:102560000E944D11C501B4010E949E1180E991E0C5
:102570000E944D11C701B6010E949E1185E991E0AC
:102580000E944D1160916F057091700590E080E0A0
:102590004AE00E945A1188E891E00E944D11C5015D
:1025A000B401DF91CF911F910F91FF90EF90DF90D9
:1025B000CF90BF90AF909F908F9008950F931F93EF
:1025C000CF93DF938C01EB01DC0114968D919C91EC
:1025D0000E944D0EF801048115810E945C03AB013D
:1025E000BC01FE01349680E2DF011D928A95E9F775
:1025F00084E290E0A0E0B0E088839983AA83BB8363
:10260000F80182A593A5B0E0A0E08C839D83AE8302
:10261000BF838DE090E0A0E0B0E088879987AA872B
:10262000BB87488B598B6A8B7B8B82819381A4817A
:10263000B5818C8B9D8BAE8BBF8B81E0DF91CF9171
:102640001F910F9108958F929F92AF92BF92CF9258
:10265000DF92EF92FF920F931F93CF93DF938C0142
:10266000EB01DC0114968D919C910E944D0EF801B6
:10267000048115810E945C03FE01349620E2DF0193
:102680001D922A95E9F7C12CD12C7601C394C882FA
:10269000D982EA82FB82F80126A137A14901B12C37
:1026A000A12C8C829D82AE82BF82C886D986EA86A2
:1026B000FB86688B798B8A8B9B8B2AE038EE4CE10A
:1026C00051E466817781808591850E940E256C8B0F
:1026D0007D8B8E8B9F8B2AE038EE4CE151E4D80144
:1026E0001A966D917D918D919C911D970E940E255A
:1026F000688F798F8A8F9B8F2AE038EE4CE151E406
:10270000F80166857785808991890E940E256C8FF6
:102710007D8F8E8F9F8F81E0DF91CF911F910F91E1
:10272000FF90EF90DF90CF90BF90AF909F908F90F1
:1027300008950F931F93CF93DF938C01EB01DC017E
:1027400014968D919C910E944D0EF8010481158183
:102750000E945C03AB01BC01FE01349680E2DF0104
:102760001D928A95E9F781E090E0A0E0B0E08883CF
:102770009983AA83BB83F80180A591A5B0E0A0E06E
:102780008C839D83AE83BF8384E090E0A0E0B0E0C3
:1027900088879987AA87BB87488B598B6A8B7B8BE5
:1027A00025E33AEF4EE85CE3628973898489958971
:1027B0000E940E256C8B7D8B8E8B9F8B25E33AEFD1
:1027C0004EE85CE3D80156966D917D918D919C9178
:1027D00059970E940E25688F798F8A8F9B8F25E3EA
:1027E0003AEF4EE85CE3F801628D738D848D958D30
:1027F0000E940E256C8F7D8F8E8F9F8F81E0DF91E1
:10280000CF911F910F9108950C94B3260C94B32689
:102810000C94B32685ED8093BC0080915B0390916E
:102820005C03A0915D03B0915E030796A11DB11DED
:1028300023E0B695A795979587952A95D1F720918E
:10284000BC0024FD03C010925903089540915B031E
:1028500050915C0360915D0370915E03452B462BA4
:10286000472B69F30097A105B10541F02AE22A95AB
:10287000F1F700C00197A109B109E1CF80915A0396
:102880000C9432080F931F93CF93DF938C01EB01CD
:1028900088E2FB0111928A95E9F74BE050E06BE981
:1028A00071E0CE010E943C271B8681E090E0A0E011
:1028B000B0E08C879D87AE87BF87F80182819381C6
:1028C000092E000CAA0BBB0B888B998BAA8BBB8B98
:1028D0008DE090E0A0E0B0E08C8B9D8BAE8BBF8B49
:1028E0001CA21DA21EA21FA280E090E0A0E2B2ECFA
:1028F0008C8F9D8FAE8FBF8F80E090E0A2EDB2E411
:10290000888F998FAA8FBB8F84E09DEAA0E4BBE3F8
:1029100088A399A3AAA3BBA3DF91CF911F910F9185
:1029200008950F931F93CF93DF938C01EB0188E2FF
:10293000FB0111928A95E9F74BE050E065EA71E0FE
:10294000CE010E943C271B8641E050E060E070E031
:102950004C875D876E877F87F80182819381092E7E
:10296000000CAA0BBB0B888B998BAA8BBB8B4C8B57
:102970005D8B6E8B7F8B1CA21DA21EA21FA28AE004
:1029800098EEACE1B3EC8C8F9D8FAE8FBF8F8AE059
:1029900098EEACE1B3E4888F998FAA8FBB8F83E266
:1029A0009BEDA9E7BDE388A399A3AAA3BBA3DF91ED
:1029B000CF911F910F9108950F931F93CF93DF93A2
:1029C0008C01EB0188E2FB0111928A95E9F74BE05B
:1029D00050E06FEA71E0CE010E943C271B8681E047
:1029E00090E0A0E0B0E08C879D87AE87BF87F801BC
:1029F00082819381092E000CAA0BBB0B888B998BCB
:102A0000AA8BBB8B84E090E0A0E0B0E08C8B9D8B28
:102A1000AE8BBF8B1CA21DA21EA21FA287ED93EA44
:102A2000ABE0B2EC8C8F9D8FAE8FBF8F87ED93EABA
:102A3000ABE0B2E4888F998FAA8FBB8F8AE99BEABB
:102A4000ABE0B9E388A399A3AAA3BBA3DF91CF917D
:102A50001F910F9108951F920F920FB60F9211249C
:102A60002F933F938F939F93AF93BF9380911703BF
:102A700090911803A0911903B0911A033091160395
:102A800023E0230F2D3758F50196A11DB11D20938A
:102A900016038093170390931803A0931903B09320
:102AA0001A0380911B0390911C03A0911D03B09108
:102AB0001E030196A11DB11D80931B0390931C035F
:102AC000A0931D03B0931E03BF91AF919F918F916F
:102AD0003F912F910F900FBE0F901F90189526E8F1
:102AE000230F0296A11DB11DD2CF1F920F920FB6D8
:102AF0000F9211248F939F938091E1009091E100B8
:102B0000937F9093E10083FF0FC01092E90091E062
:102B10009093EB001092EC0092E39093ED001092F2
:102B20002C0398E09093F00082FF22C093E09093F2
:102B3000E9009091F200992319F09AE39093E8004C
:102B400090918402992341F0909184029150909346
:102B50008402911101C05D9A90912B03992341F059
:102B600090912B03915090932B03911101C0289ABF
:102B700084FF18C08091E2008E7E81608093E20025
:102B80008091E1008F7E8093E100809185028E7EAE
:102B90008061809385029F918F910F900FBE0F905F
:102BA0001F90189580FFF7CF8091E2008E7E8061A4
:102BB0008093E2008091E1008E7E8093E10080911D
:102BC00085028E7E8160E5CF1F920F920FB60F9225
:102BD0001124CF92DF92EF92FF920F931F932F93C6
:102BE0003F934F935F936F937F938F939F93AF9395
:102BF000BF93EF93FF93CF93DF93CDB7DEB76C977F
:102C0000DEBFCDBF1092E9008091E80083FF25C0B0
:102C100068E0CE0145960E94230482EF8093E8008D
:102C20008D8987FF39C09091E80090FFFCCF982FE5
:102C3000907609F034C19E894F89588D2F89F88C80
:102C4000911131C0803861F5809186028093F10046
:102C50001092F1008EEF8093E8006C960FB6F89416
:102C6000DEBF0FBECDBFDF91CF91FF91EF91BF913E
:102C7000AF919F918F917F916F915F914F913F9114
:102C80002F911F910F91FF90EF90DF90CF900F90B9
:102C90000FBE0F901F9018959EEF9093E800C7CF3E
:102CA0001092F100D5CF913059F48111D3CF41303A
:102CB000510581F6809186028D7F80938602CACF6E
:102CC000933049F48111C6CF4130510519F68091F6
:102CD00086028260F2CF953041F48091E80080FF57
:102CE000FCCF20682093E300B5CF963009F0A9C04F
:102CF0000B8D1C8D22E01092E9001092820210923E
:102D00008102F2122EC01092800210927F020E9465
:102D1000F2031F8299E09983FA8291E09E8390EA00
:102D200098879AEF99872091810230918202275FDC
:102D30003F4F3C832B838D831092E90010928202D7
:102D4000109281021093800200937F0249E050E0CC
:102D5000BE016F5F7F4F80E00E94CC030E94F203B0
:102D600079CF1093800200937F020E946C02DC01F5
:102D700012960D911C910115110509F451C1D8014C
:102D8000ED91FC910480F581E02DBE016B5E7F4FDB
:102D9000C8010995009709F03EC1F8010085118529
:102DA000EACFF3E0FF120EC08F89882309F440C0F8
:102DB000823061F440E860E180E191E00E94990393
:102DC000811148CF81E28093EB0047CF813029F415
:102DD00040E86BE084E091E0F1CF833099F70E9406
:102DE0006C02DC011296ED90FC908E010F5F1F4F7C
:102DF0006801E114F10479F0D701ED91FC910680AE
:102E0000F781E02DB801C7010995080F111DF701E1
:102E1000E084F184EECFD8011C92F60101900020ED
:102E2000E9F73197BF016C197D0940E0C601C6CFB3
:102E30006EEE70E0FB01449150E080E80E94CC030C
:102E400009CF973009F4BECF983021F481E0809308
:102E5000F10000CF993009F0FDCE837009F0B2CFB8
:102E6000ECE4F1E081E031E096E32191222371F07E
:102E70008093E9003093EB00DF0111972C912093B0
:102E8000EC009093ED008F5F873079F78EE78093A9
:102E9000EA001092EA008F8980932C03DBCE8B8DA1
:102EA0009C8D1092E9001092820210928102909300
:102EB000800280937F02898D811192C08E899D89C5
:102EC000913A49F4813209F07DCF47E050E064E067
:102ED00071E080E0B3CF913209F074CF833269F4AE
:102EE0008F89988DB0E0A0E080930001909301015C
:102EF000A0930201B0930301ADCE803269F48091BA
:102F0000E80082FFFCCF67E084E091E00E942304A8
:102F10008BEF8093E8009ECE823209F09BCE8F89A2
:102F200080930B01EEEFFFE7859194918B3F9C4DD1
:102F300051F1E0E0F8E08091040190910501A09149
:102F40000601B0910701803B9440A105B105F1F461
:102F500080910B0180FD1AC0EE3F8AE0F80789F5E9
:102F600087E797E791838083809160008093830255
:102F700088E19BE00FB6F894A895809360000FBE9F
:102F80009093600067CEEEEFFAE0D5CF808191811B
:102F90008737974709F05ECEA895809160008861D9
:102FA000809360008091830280936000EE3F2AE06E
:102FB000F20789F08091FE0A9091FF0A9183808345
:102FC00049CE808191818737980751F29093FF0A0B
:102FD0008093FE0AC5CF1092FF0A1092FE0A3ACEE5
:102FE0000E946C02DC0112960D911C9101151105D5
:102FF00009F4E8CED801ED91FC910190F081E02D2B
:10300000BE016B5E7F4FC8010995811123CEF80187
:1030100000851185EBCF181619060CF41BCED2CE05
:10302000F1E0FF12BECE62EF70E004CF1F920F926C
:103030000FB60F9211242F933F934F935F936F938B
:103040007F938F939F93AF93BF93EF93FF93809161
:10305000B900887F803609F44AC0F0F5883209F457
:10306000A7C018F5803109F49BC0B8F4882309F48F
:10307000F9C0883009F494C0FF91EF91BF91AF91EE
:103080009F918F917F916F915F914F913F912F9180
:103090000F900FBE0F901F901895883109F488C0CB
:1030A000803251F78093570314C0803409F49DC0D7
:1030B00040F48033B9F38833F9F68093570385ECF5
:1030C000B0C0803509F485C0883509F496C08834CD
:1030D00099F60E940A14D0CF883909F48CC038F5CB
:1030E000883729F050F4883611F0803729F683E0CC
:1030F0008093590310925D0257C0883809F47BC051
:10310000803919F0803809F0B7CF80915D028032A4
:1031100008F071C0E0915D0281E08E0F80935D0246
:103120008091BB00F0E0E35CFD4F80833DC0803BBD
:1031300039F0E0F4803A09F479C0883A09F09CCF7C
:1031400084E08093590310923C0210923B02E0917C
:103150002F03F0913003099580913B0281110FC03C
:1031600081E080933B0210921B0209C0803C09F46D
:10317000A6CF883C09F4A3CF883B09F07DCFE0912E
:103180003C0281E08E0F80933C02F0E0E55EFD4F53
:1031900080818093BB0090913C0280913B0229C0CA
:1031A000809134038093BB0085EC8093BC0064CF96
:1031B0009091560380915503981758F5E091560366
:1031C00081E08E0F80935603F0E0EB5CFC4F808132
:1031D000E9CFE091560381E08E0F809356038091F2
:1031E000BB00F0E0EB5CFC4F808390915603809134
:1031F00055039817C8F285E8D8CFE091560381E0CF
:103200008E0F809356038091BB00F0E0EB5CFC4F87
:1032100080838091580381115CCF81E080933303D8
:1032200084EA8093BC001092590326CF85EC8093EA
:10323000BC001092590380915D02803230F4E0911D
:103240005D02F0E0E35CFD4F108260915D0270E092
:10325000E0912D03F0912E038DE392E009951092F9
:103260005D020ACF1092570334CFFC01878190850D
:10327000009711F00C94B326089581E795E00E9421
:1032800035198AE795E00E94351983E895E00E9498
:1032900035198AE791E090938D0580938C05809194
:1032A000AC059091AD05009739F0DC01ED91FC91F2
:1032B0000280F381E02D09958091AE059091AF05D4
:1032C000009739F0DC01ED91FC910280F381E02D53
:1032D00009958091B0059091B105009739F0DC0116
:1032E000ED91FC910280F381E02D09958091AA0572
:1032F0009091AB05009711F00C94B3260895E3E884
:10330000F3E01382128288EE93E0A0E0B0E08483C1
:103310009583A683B78326E531E0318320832FEFA1
:103320003FEF35872487E3EDF3E013821282848335
:103330009583A683B78388E691E091838083ECE848
:10334000F5E08AE791E091838083178E168E11A2B3
:1033500010A213A212A215A214A2E3E8F5E08AE0DB
:1033600090E0928381831482138216821582EAE7A9
:10337000F5E0928381831482138216821582E1E73D
:10338000F5E092838183148213821682158280E98C
:1033900091E0EFEDF3E0DF019C011D922150304000
:1033A000E1F70895CF93DF93CDB7DEB7A3970FB6BC
:1033B000F894DEBF0FBECDBF789484B5826084BD23
:1033C00084B5816084BD85B5826085BD85B5816029
:1033D00085BD80916E00816080936E0010928100A7
:1033E0008091810082608093810080918100816062
:1033F0008093810080918000816080938000809123
:10340000910082608093910080919100816080930F
:103410009100809190008160809390008091C10024
:1034200084608093C1008091C10082608093C1005C
:103430008091C10081608093C1008091C300816050
:103440008093C3008091C00082608093C00080910F
:10345000C20081608093C20080917A008460809372
:103460007A0080917A00826080937A0080917A005D
:10347000816080937A0080917A00806880937A00DE
:1034800010922C0310928602109285028091D70030
:1034900081608093D70080EA8093D80089B58061ED
:1034A00089BD89B5826089BD09B400FEFDCF61E0A8
:1034B00070E080E090E00E942A038091D8008F7C29
:1034C00080618093D8008091E000807F8093E0004D
:1034D0008091E1008E7E8093E1008DE08093E20098
:1034E000559A209A8FEF9FEF9093900380938F03CC
:1034F00010910B016AE070E080E090E00E942A03E6
:10350000111107C06AE070E080E090E00E942A0399
:10351000EFCF8091AA059091AB05009711F00E9422
:10352000B32686E090E00E941726FC0188E680839F
:1035300083ED93E092838183138280E290E0958310
:103540008483F093AB05E093AA0505E011E0E090D9
:10355000AA05F090AB050E941B08D70113961C9397
:10356000C7010E944309811107C26AE070E080E050
:1035700090E00E942A03015051F789EB91E00E94EC
:1035800068126AE070E080E090E00E942A03F9CFC0
:10359000E0911201F091130180E009955AC3EFED1B
:1035A000F3E084819581A681B78181939193A19362
:1035B000B1932BE635E02E173F0799F7C0926B05C4
:1035C000D0926C05E0926D05F0926E0548C4A8A2F9
:1035D000B9A20AA31BA355C42C8D3D8DB90190E05F
:1035E00080E00E9467249B01AC01C301B2010E94EC
:1035F000BF230E9481252B013C018AED91E00E94AE
:103600004D11C301B2010E949E119501A801C7018D
:10361000B6010E944D23A30192010E94BF236B01BA
:103620007C0181EE91E00E944D11C701B6010E941C
:103630009E1120E030E040E050E4C701B6010E9456
:10364000092518164CF480911403909115030196E6
:103650009093150380931403E0EFF3E08491E1ED80
:10366000F3E01491E2EBF3E0049101117BC01092BE
:103670001503109214030E94CB0589EE91E00E947D
:1036800068120E945C0300911003109111032091B5
:10369000120330911303601B710B820B930B683C78
:1036A00071058105910508F455C00E945C03609383
:1036B000100370931103809312039093130381E717
:1036C00095E00E94990BF82EE92E8AE795E00E947A
:1036D000990B182F092F83E895E00E94990BEF9220
:1036E000FF920F931F939F938F932FEE31E03F93A1
:1036F0002F9380EB92E09F938F930E944B27109221
:10370000AF021092AE0210928E0210928D02809142
:1037100015038F93809114038F93EFE0F2E0FF93F2
:10372000EF9341E050E04C0F5D1F5F934F930E9479
:103730004B27CE0101965C010FB6F894DEBF0FBE99
:10374000CDBFD5011D915D0111111CC0CE010196A7
:103750000E946812E0E0F0E0EF2B09F4EEC20E9454
:103760000000EBC281110E948002E02FF0E0EE0F1A
:10377000FF1FE357FC4FA591B4918C91182309F4D6
:1037800076CF7FCF1D3029F41092AF021092AE0297
:10379000D8CFEA8DFB8D25E011922A95E9F71A30F2
:1037A000A1F180918B0290918C02009749F4812FB6
:1037B00090E0103C98F090938C0280938B02C1CFE4
:1037C00026E0880F991F2A95E1F7807C9770212FBA
:1037D0002F73822B10928C0210928B02E09189023F
:1037E000F0918A02BE016C5E7F4F09952C89809111
:1037F0009C0290919D02821B91092091AE02309112
:10380000AF028217930708F043C01092AF021092E4
:10381000AE0200919102402F50E080918D02909174
:103820008E02840F951F90938E0280938D022091BB
:103830009E0230919F02241B350B2817390720F474
:1038400010928E0210928D0240919C0250919D0226
:10385000F42E552760918D0270918E0293E076953B
:1038600067959A95E1F77727E091A002F091A10280
:1038700090E080E0099506950695069501114EC0E9
:10388000E0911001F091110109951A3009F459CF16
:10389000CF88D88C8D889C8860918D0270918E0223
:1038A00083E0769567958A95E1F70091AE021091D5
:1038B000AF0220919C0230919D02C8019927A90175
:1038C000481B590B090D021B9416150609F008F444
:1038D00000E0901AE92CF12C7727E091A002F091FA
:1038E000A102A70109958694869486940E0D1F2D3A
:1038F000111D882059F17601792C1DC0E091A40298
:10390000F091A50280E00995EA94E110F7CFE091EB
:10391000A202F091A30209950150B0CFEF2CF5CF90
:10392000F7018491E091A402F091A50209957A949F
:10393000FFEFEF1AFF0A7110F3CFE091A202F091AE
:10394000A30209958A94C00ED11ED3CFE091100135
:10395000F091110109958C899E89482F490F5527AF
:10396000551F8091AE029091AF02840F951F9093E6
:10397000AF028093AE02E5CE8091AA059091AB058F
:10398000188A198A1A8A1B8A9A8389831C821B8245
:103990001A8785E790E098878F831B8619879E0199
:1039A0002F5F3F4F1901C9010E94650D68367105EF
:1039B0008105910509F0E1CD40E050E0BA018CE8C5
:1039C00095E00E94C40F882309F4D7CD8091AA0501
:1039D0009091AB05188A198A1A8A1B8A9A8389835F
:1039E0001C821B821A878AE190E098878F831B864E
:1039F00019873D8A2C8A03E00E8B1F8A46E050E02F
:103A000060E070E0CE0144960E94960D8091AA0578
:103A10009091AB05188A198A1A8A1B8A9A8389831E
:103A20001C821B821A877CE1E72EF12CF886EF823C
:103A30001B8619873D8A2C8A0E8B1F8A40E050E036
:103A4000BA01CE0144960E94960D8091AA059091EC
:103A5000AB05188A198A1A8A1B8A9A8389831C8261
:103A60001B821A87F886EF821B8619873D8A2C8A6B
:103A700082E08E8B0F8B43E050E060E070E0CE017F
:103A800044960E94960D8091AA059091AB05188AE4
:103A9000198A1A8A1B8A9A8389831C821B821A8735
:103AA0008CE690E098878F831B8619873D8A2C8A45
:103AB0000E8B1F8A47E050E060E070E0CE01449634
:103AC0000E94960D8091AA059091AB05188A198ADB
:103AD0001A8A1B8A9A8389831C821B821A87EBE6C7
:103AE000EE2EF12CF886EF821B8619873D8A2C8AF0
:103AF0001E8B0F8B41E050E060E070E0CE014496F9
:103B00000E94960D8091AA059091AB05188A198A9A
:103B10001A8A1B8A9A8389831C821B821A87F886D9
:103B2000EF821B8619873D8A2C8A1E8B86E08F8B3D
:103B300040E050E0BA01CE0144960E94960D1093E9
:103B40008305FEE1EF2EF12CF0928505E0928405CD
:103B500083E895E00E94AB0F10937A05F0927C0504
:103B6000E0927B058AE795E00E94AB0F1093710508
:103B7000F0927305E092720581E795E00E94AB0F29
:103B800083ED93E090938802809387020E941B0844
:103B90008CE08093B8008CE380930C0110920D01AF
:103BA00086E395E090930F0180930E0188E699E0FB
:103BB00090931101809310018BE699E0909313018B
:103BC000809312012BE839E0309315012093140102
:103BD0002AE633E0309317012093160110929B02DE
:103BE00010929A0220E230E030939F0220939E02CE
:103BF00020E830E030939D0220939C0220E236E0E2
:103C00003093A1022093A00228E633E03093A30270
:103C10002093A2029093A5028093A40289E693E0E8
:103C20009093AD028093AC0201E211E0AAE3EA2E88
:103C3000A1E0FA2EF801D490E0910E01F0910F016D
:103C4000099580910D01882309F4A2CC80E00E949F
:103C50001C06E0911201F09113018D2D0995E09160
:103C60001001F091110109950F5F1F4FE016F10649
:103C700009F70E94CB05E8E4F1E0E491E0938F02BC
:103C8000E9E4F1E0249120939002EAE4F1E08491E8
:103C900080939102EBE4F1E0E491E09392024CE432
:103CA00051E050939702409396024DE855E05093AF
:103CB0008A024093890290E0079663E09595879584
:103CC0006A95E1F780939402289FE02D1124E093F8
:103CD00095021092990210929802E1EDF3E024917E
:103CE000E2EBF3E084918823C9F090E0880F991FFC
:103CF000FC01E65CFE4FA591B491FC01E556FC4F3A
:103D0000459154919FB7F8943C91822F80958323DD
:103D10008C93DA018C91282B2C939FBFEFEDF3E06D
:103D200082E991E0DF019C011D9221503040E1F7D2
:103D3000AE014C5E5F4F5B8F4A8F0E945C038CE844
:103D400095E00E941A0E8091AA059091AB05188A01
:103D5000198A1A8A1B8A9A8389831C821B8281E0B2
:103D60008A87ABE3B0E0B887AF831B86898746E0DC
:103D7000BE016C5E7F4FC1010E94DE0B6C887D88A6
:103D80007624672476247092B9056092B8058E88EF
:103D90009F889824892498249092BB058092BA0524
:103DA000088D198D1027012710271093BD0500934A
:103DB000BC05B30183E895E00E94020BB4018AE7D9
:103DC00095E00E94020BB80181E795E00E94020B8A
:103DD000C8010E94CC220E94BE2259016A017B01C7
:103DE0008C01C4010E94CC220E94BE220E94901F1E
:103DF00059016A017B018C01C3010E94CC220E94FF
:103E0000BE220E94901F0E945F2259016A017B011D
:103E10008C0185ED91E00E944D119501A601B7013D
:103E2000C8010E9433206B017C010E949E11809189
:103E30006F05909170058436910508F0B0CBFC01B8
:103E4000EE0FFF1FEE0FFF1FE152FC4FC082D18229
:103E5000E282F38201969093700580936F050E9431
:103E600076125B018C0120E030E040E85FEB0E94BD
:103E7000BA238111ACCB0E94761268A379A38AA3DE
:103E80009BA340916F05509170055D8F4C8F8FED16
:103E900093E09F8F8E8F912C812C412C512C3201DD
:103EA000AC8DBD8DA815B90509F496CBEE8DFF8DAF
:103EB0006191719181919191FF8FEE8F28A139A12C
:103EC0004AA15BA10E944D239B01AC010E940E25DB
:103ED0009B01AC01C301B2010E944E232B013C01A6
:103EE000FFEF8F1A9F0ADCCF49F40E94342281F43D
:103EF0000E943D2250F44EF400203AF00C94F4213C
:103F000097F917FD905897FB0895FADF0C94C2209B
:103F1000101917FB0C94C22000240894079401C0C8
:103F200000240E94EF220E945420F0F251F00E94DF
:103F3000CC2011F4E5DF09C017D00E94FE220C94BA
:103F4000FE21101917FB0E94D7200E94FE2287FD38
:103F50000C941C220E94472231970C941C220024AE
:103F60000894079401C000240E940E20EA07FB0772
:103F700070F039F497F9901997FD36C00024C0DF2E
:103F80001CC097F997FD09260E94801F06C01019D2
:103F90000EF4009417FB0E941C23AE1BBF0B69F0AC
:103FA000BF3FF0F0AB3CE0F00695F794E794D79470
:103FB000C794B794A794AF5FB9F707FE1AC02A1940
:103FC0003B094C095D096E097F09800B4AF0319766
:103FD00021F018F00E944722F9CF0E94472208954D
:103FE0008823DAF7889408950E943523F90108940C
:103FF00008952A0D3B1D4C1D5D1D6E1D7F1D801FEC
:1040000078F787950E9450223196EF3F49F7F730B5
:1040100039F776DF0E94C420089408952A153B05DD
:104020004C055D056E057F0580070895A216B30651
:10403000C406D506E606F706080708951216130605
:10404000140615061606170608951A141B041C04F8
:104050001D041E041F04089511F00C9443230C94B6
:104060003D230C9447230E948E20B0F3D1F3EF5FE1
:10407000F340F130A4F7FF3FA4F3FF2362F4EA36E4
:1040800080F3E23850F4E258869577956795E3958A
:10409000DAF3992707C0E03810F7E158880F9E2F10
:1040A0009695879597F9089517FD9058D801A07FA8
:1040B0000A27BF77B695A795B695A795B695A79504
:1040C000B695A795109619F1B73011F4AF3F79F076
:1040D00006D005D004D0000F089407951FC0AA0C85
:1040E000BB1CCC1CDD1CEE1CFF1C001F0895F7DF61
:1040F000F6DFF5DFF4DF12D008F441F40115F10426
:10410000E104D104C104B104A10408940895E7DFD7
:10411000E6DFE5DF0E9425201006AA1F97FBFC01C1
:10412000F92FFF77E07FF695E795F695E795F695F9
:10413000E795F695E7958F70309669F0F73011F4B2
:10414000EF3F79F080610E9447220E9447220E943F
:104150004722989408950E941E201806EE1F99F792
:1041600008950E9447220E9447220E9447220E94EF
:10417000472281157105610551054105310521056C
:10418000089408950E94FE2297F99F6780EF772791
:104190006627AB019B0108950F92002E0F280E2871
:1041A0000D280C280B280A280F9088940895FD01EB
:1041B000C801B701A60195010895DF018C017B01BB
:1041C0006A0159010895A1F4BA2BB02BBF29BE2969
:1041D000BD29BC29BB29BA2959F0FE2BF82BF72B96
:1041E000F62BF52BF42BF32BF22B11F00C94C220B1
:1041F0000C94F42111240C9436230E94EF220E9487
:10420000542008F39F928F927F926F925F920DD00D
:104210005F906F907F908F909F900E94FE2210F091
:104220000C94FE2108950E94342221F30E943D2225
:1042300009F3EA0FFB1F7A9D902C812C55247724DB
:1042400066246B9D900C811C751C5C9D900C811CE0
:10425000751C4D9D900C811C751C3E9D900C811C05
:10426000751C2F9D900C811C751C8A9D800C711CE7
:10427000651C7B9D800C711C651C6C9D800C711CE9
:10428000651C5D9D800C711C651C4E9D800C711C15
:10429000651C3F9D800C711C651C209F800C711C4F
:1042A000651CAA248B9D700C611CA51C7C9D700C48
:1042B000611CA51C6D9D700C611CA51C5E9D700C85
:1042C000611CA51C4F9D700C611CA51C309F700CBF
:1042D000611CA51CBB248C9D600CA11CB51C7D9D84
:1042E000600CA11CB51C6E9D600CA11CB51C5F9DD3
:1042F000600CA11CB51C409F600CA11CB51CCC24FB
:104300008D9DA00CB11CC51C7E9DA00CB11CC51CB4
:104310006F9DA00CB11CC51C509FA00CB11CC51CEE
:10432000DD248E9DB00CC11CD51C7F9DB00CC11C22
:10433000D51C609FB00CC11CD51CEE248F9DC00CF9
:10434000D11CE51C709FC00CD11CE51C809FD00CBB
:10435000E11C1124EE2051F4FD2CFC28FB28FA2846
:10436000F628F728F828F928D9F0EE205AF0990C09
:10437000881C771C661CAA1CBB1CCC1CDD1CEE1CFC
:104380003197F3CFEE5FF34030968AF0B9F0F73013
:10439000A8F011F4EF3F91F40E94C420089408950E
:1043A000F12DE12D88940C94362314D007C0ED3CF8
:1043B000BCF3FF3FA9F70ED03196EAF38E2D7D2D89
:1043C0006C2D5B2D4A2D362D272D892809F0206074
:1043D00088940895E694D794C794B794A794679463
:1043E00077948794979408950E94FE229FE788EF20
:1043F000089531970E944722E2F70895889422FF9A
:104400001BC031FD03C010F020FF14C0285FA0F0D6
:104410000894311D411D511D611D711D811D60F4E8
:1044200087950E9450223196EF3F31F4F73021F406
:104430000C94C42023FF2860309621F0882322F0BA
:10444000EE27FF270E944F220E944F220E944F22F8
:104450000E944F22E295F2959E2F9F709F2B8F70A6
:10446000E07F8E2B97F90895F73021F4EF3F11F498
:1044700080300895989488940895B73031F4AF3F10
:1044800021F40E94CC20089408950C94CC20220F93
:10449000331F441F551F661F771F881F0895869579
:1044A000779567955795479537952795089509F41A
:1044B00016F40C94F6210C94C4200C9436230E941C
:1044C0008E20A8F3D1F3AEF387FF0E94F92102D02A
:1044D0000C94FE21EF5FF3409F928F927F926F9238
:1044E000AF92BF92CF92DF92EF92FF920F9390E63E
:1044F000992488243401D40100EA7D016D015D0115
:1045000000248054F595E79500F1805478F49015D7
:104510002A093B094C095D096E097F09800BAA2A0B
:10452000BB2AC628D728E828F928092B96959794FE
:10453000879477946794B795A795001CAA26BB2605
:10454000C624D724E824F92409270E94472210F022
:104550000E94162001FEDACF9501A601B701802F37
:104560000F91FF90EF90DF90CF90BF90AF906F9042
:104570007F908F909F90E150FC4F08950E94EF2212
:10458000BF93AF930E94DE200E94FD20AF91BF91A8
:104590000C941323E89408C002D00C941C2297FBBF
:1045A0001EF4909581959F4FEE27FF279F01AF0145
:1045B000BF01009609F40895F4E0EEE0992341F07C
:1045C000782F892F97F952F03197770F881FFBCFFB
:1045D000389788231AF03197880FFCCF08950092FE
:1045E0001801109219010F901F901F930F93FF92C3
:1045F000EF92DF92CF92BF92AF920EC0009218015D
:10460000109219010F901F90AF90BF90CF90DF9044
:10461000EF90FF900F911F911F920F921090190130
:10462000009018010895AF90BF90CF90DF90EF9069
:10463000FF900F911F9108950F921F920D01DF01BE
:10464000F00105015901900106016A01A00107016D
:104650007B01B00108018C01C0011F900F900895EB
:104660000E9435239FE380EF0895E894912D812DDA
:10467000BC01AC019C0197F9089597F99F6780E808
:1046800070E060E008959FEF80EC0895E894BB2708
:1046900066277727CB0197F908955058BB27AA279B
:1046A0000E9465230C94D6240E94C82438F00E94EE
:1046B000CF2420F039F49F3F19F426F40C944323BF
:1046C0000EF4E095E7FB0C943D23E92F0E94E724CC
:1046D00058F3BA17620773078407950720F079F437
:1046E000A6F50C9446230EF4E0950B2EBA2FA02DC0
:1046F0000B01B90190010C01CA01A0011124FF278F
:10470000591B99F0593F50F4503E68F11A16F04089
:10471000A22F232F342F4427585FF3CF4695379588
:104720002795A795F0405395C9F77EF41F16BA0B4D
:10473000620B730B840BBAF09150A1F0FF0FBB1FFB
:10474000661F771F881FC2F70EC0BA0F621F731F44
:10475000841F48F4879577956795B795F7959E3FA1
:1047600008F0B0CF9395880F08F09927EE0F979532
:10477000879508950E94A42408F481E008950E947A
:10478000D3230C94D6240E94CF2458F00E94C8242E
:1047900040F029F45F3F29F00C943D2351110C9413
:1047A00047230C9443230E94E72468F39923B1F331
:1047B000552391F3951B550BBB27AA276217730747
:1047C000840738F09F5F5F4F220F331F441FAA1FDB
:1047D000A9F335D00E2E3AF0E0E832D09150504097
:1047E000E695001CCAF72BD0FE2F29D0660F771F45
:1047F000881FBB1F261737074807AB07B0E809F02B
:10480000BB0B802DBF01FF2793585F4F3AF09E3FAF
:10481000510578F00C943D230C9447235F3FE4F35B
:10482000983ED4F3869577956795B795F7959F5FF2
:10483000C9F7880F911D9695879597F90895E1E03E
:10484000660F771F881FBB1F621773078407BA079D
:1048500020F0621B730B840BBA0BEE1F88F7E095F8
:1048600008950E9438246894B1110C944723089548
:104870000E94EF2488F09F5798F0B92F9927B751DD
:10488000B0F0E1F0660F771F881F991F1AF0BA95F4
:10489000C9F714C0B13091F00E944623B1E00895E9
:1048A0000C944623672F782F8827B85F39F0B93FDB
:1048B000CCF3869577956795B395D9F73EF49095A7
:1048C0008095709561957F4F8F4F9F4F0895E89425
:1048D00009C097FB3EF490958095709561957F4F48
:1048E0008F4F9F4F9923A9F0F92F96E9BB279395F6
:1048F000F695879577956795B795F111F8CFFAF406
:10490000BB0F11F460FF1BC06F5F7F4F8F4F9F4F36
:1049100016C0882311F096E911C0772321F09EE894
:10492000872F762F05C0662371F096E8862F70E0FA
:1049300060E02AF09A95660F771F881FDAF7880FD4
:104940009695879597F90895990F0008550FAA0B2A
:10495000E0E8FEEF16161706E807F907C0F0121692
:104960001306E407F50798F0621B730B840B950B95
:1049700039F40A2661F0232B242B252B21F40895EA
:104980000A2609F4A140A6958FEF811D811D089587
:1049900000240A941616170618060906089500241E
:1049A0000A9412161306140605060895092E039498
:1049B000000C11F4882352F0BB0F40F4BF2B11F40C
:1049C00060FF04C06F5F7F4F8F4F9F4F089557FD6B
:1049D0009058440F551F59F05F3F71F04795880F6D
:1049E00097FB991F61F09F3F79F087950895121604
:1049F00013061406551FF2CF4695F1DF08C01616B0
:104A000017061806991FF1CF869571056105089460
:104A100008950E94A42408F48FEF08950E94212590
:104A20000C94D6240E94C82438F00E94CF2420F091
:104A3000952311F00C943D230C94432311240C94E2
:104A400047230E94E72470F3959FC1F3950F50E030
:104A5000551F629FF001729FBB27F00DB11D639F30
:104A6000AA27F00DB11DAA1F649F6627B00DA11DD6
:104A7000661F829F2227B00DA11D621F739FB00D7C
:104A8000A11D621F839FA00D611D221F749F3327EC
:104A9000A00D611D231F849F600D211D822F762F85
:104AA0006A2F11249F5750409AF0F1F088234AF062
:104AB000EE0FFF1FBB1F661F771F881F91505040CE
:104AC000A9F79E3F510580F00C943D230C94472399
:104AD0005F3FE4F3983ED4F3869577956795B79555
:104AE000F795E7959F5FC1F7FE2B880F911D96956F
:104AF000879597F9089519F416F40C9443230C94B0
:104B0000C6250E94EF24B8F39923C9F3B6F39F5743
:104B1000550B87FF0E94D4250024A0E640EA9001AF
:104B200080585695979528F4805C660F771F881FEC
:104B300020F026173707480730F4621B730B840BED
:104B4000202931294A2BA695179407942025312531
:104B50004A2758F7660F771F881F20F02617370758
:104B6000480730F4620B730B840B200D311D411D7F
:104B7000A09581F7B901842F9158880F9695879554
:104B800008950E94A424880B990B08959F3F31F04B
:104B9000915020F4879577956795B795880F911D6B
:104BA0009695879597F9089591505040660F771F15
:104BB000881FD2F70895AA1BBB1B51E107C0AA1F8B
:104BC000BB1FA617B70710F0A61BB70B881F991FAE
:104BD0005A95A9F780959095BC01CD010895A1E261
:104BE0001A2EAA1BBB1BFD010DC0AA1FBB1FEE1F67
:104BF000FF1FA217B307E407F50720F0A21BB30BB2
:104C0000E40BF50B661F771F881F991F1A9469F72D
:104C100060957095809590959B01AC01BD01CF0189
:104C20000895EE0FFF1F0590F491E02D09940F9366
:104C30001F93CF93DF938230910510F482E090E0D0
:104C4000E091C805F091C90530E020E0B0E0A0E0B7
:104C5000309799F42115310509F44AC0281B390B06
:104C600024303105D8F58A819B816115710589F160
:104C7000FB0193838283FE0111C040815181028137
:104C8000138148175907E0F04817590799F410970E
:104C900061F012960C93129713961C933296CF01E3
:104CA000DF91CF911F910F9108950093C805109344
:104CB000C905F4CF2115310551F04217530738F0DB
:104CC000A901DB019A01BD01DF01F801C1CFEF01AC
:104CD000F9CF9093C9058093C805CDCFFE01E20FAF
:104CE000F31F819391932250310939832883D7CFC1
:104CF0002091C6053091C705232B41F420911D0159
:104D000030911E013093C7052093C60520911B01E9
:104D100030911C012115310541F42DB73EB740916A
:104D20001F0150912001241B350BE091C605F09125
:104D3000C705E217F307A0F42E1B3F0B281739070E
:104D400078F0AC014E5F5F4F2417350748F04E0FE7
:104D50005F1F5093C7054093C605819391939FCFE2
:104D6000F0E0E0E09CCFCF93DF930097E9F0FC0107
:104D7000329713821282A091C805B091C905ED0146
:104D800030E020E01097A1F420813181820F931F41
:104D90002091C6053091C7052817390709F061C071
:104DA000F093C705E093C605DF91CF910895EA011E
:104DB000CE17DF07E8F54A815B819E014115510559
:104DC000B1F7E901FB83EA8349915991C40FD51FDB
:104DD000EC17FD0761F4808191810296840F951F85
:104DE000E90199838883828193819B838A83F0E0A0
:104DF000E0E012968D919C9113970097B9F52D9153
:104E00003C911197CD010296820F931F2091C60508
:104E10003091C7052817390739F6309751F51092A8
:104E2000C9051092C805B093C705A093C605BCCFAD
:104E3000D383C28340815181840F951FC817D9073E
:104E400061F44E5F5F4F88819981480F591F5183EC
:104E500040838A819B81938382832115310509F0E8
:104E6000B0CFF093C905E093C8059ECFFD01DC01EA
:104E7000C0CF13821282D7CFFB01DC0141505040DA
:104E800048F001900D920020C9F701C01D924150D9
:104E90005040E0F70895AEE0B0E0E1E5F7E20C94B1
:104EA000FA290D891E8986E08C831A8309838FEF86
:104EB0009FE79E838D83AE01475E5F4F6F89788D3C
:104EC000CE0101960E946E272F813885020F131F95
:104ED000F80110822E96E4E00C94162AABE0B0E0C4
:104EE000E4E7F7E20C94EC297C013B018A01FC0128
:104EF00017821682838181FFC8C1CE0101965C01B1
:104F0000F7019381F30193FD859193FF81913F0117
:104F1000882309F453C1853239F493FD859193FFB9
:104F200081913F01853229F4B70190E00E945E290A
:104F3000E7CF912C212C312CFFE1F31538F08B3287
:104F400011F190F4803209F1833229F137FC3CC031
:104F500020ED280F2A3050F536FE20C08AE0989EBA
:104F6000200D1124922E06C08D3291F0803371F7FE
:104F7000689430F8F30193FD859193FF81913F018F
:104F80008111DACF21C0689431F8689432F8F2CFF9
:104F9000689433F8EFCF689434F8ECCFEAE02E9EB3
:104FA000200D1124222E689435F8E4CF8E3229F496
:104FB00036FC04C1689436F8DDCF8C3619F4689459
:104FC00037F8D8CF8836B1F2982F9F7D955493301B
:104FD000E0F08336A1F18337C1F1833509F063C076
:104FE0002801F2E04F0E511CF801C080D180692DDC
:104FF00070E036FC02C06FEF7FEFC6010E944829C7
:105000004C01689437F882010AC00C5F1F4FFFE320
:10501000F98388248394912C6501E89437F833FE52
:105020002DC0522C8114910471F5552009F468CFDC
:10503000B70180E290E00E945E295A94F6CFF80111
:10504000808189830E5F1F4FE4CF2801F2E04F0E6D
:10505000511CF801C080D180692D70E036FC02C07F
:105060006FEF7FEFC6010E9453294C018201D5CF1B
:10507000B70180E290E00E945E292A942814190466
:1050800009F0B0F7CECFF60137FC859137FE81915C
:105090006F01B70190E00E945E2951105A94F1E02F
:1050A0008F1A9108BFCF843619F0893609F077C07E
:1050B000F80137FE6BC060817181828193810C5F42
:1050C0001F4FF32DFF763F2E97FF09C090958095D7
:1050D000709561957F4F8F4F9F4F689437F82AE006
:1050E00030E0A5010E948E29C82ECA188C2C432CB2
:1050F00036FE0CC0E89440F8C91440F434FE05C0F4
:1051000032FC03C0F32DFE7E4F2E892C44FE95C049
:10511000FE01EC0DF11D8081803309F087C0242D44
:10512000297E422E842D8870582E43FC95C040FE67
:105130008FC09C2C821418F42C0C922C981844FECE
:1051400091C0B70180E390E00E945E2942FE09C051
:1051500088E790E041FE02C088E590E0B7010E9438
:105160005E29C91408F48AC0CA94D12C9FEFC91AC9
:10517000D90ACA0CDB1CF60182916F01B70190E0DD
:105180000E945E29AC14BD04B1F74FCF60817181DC
:10519000072E000C880B990B0E5F1F4F92CFD32C5C
:1051A000E894D4F82AE030E0853739F1232D297FBF
:1051B000D22E8F3601F148F48835A9F0F7018681A7
:1051C00097812B96E2E10C94082A803749F08837C2
:1051D000A9F7D4FE02C06894D2F820E130E00DC0F7
:1051E0006894D4F8F6CF34FE03C0822F8660D82EA0
:1051F00020E132E002C028E030E0F801D7FE0FC025
:1052000060817181828193810C5F1F4FA5010E9493
:105210008E29C82ECA183D2CE89437F867CF6081D4
:10522000718190E080E00E5F1F4FF0CF42FC02C022
:10523000839478CF8394839475CF842D867809F4F2
:1052400071CFF6CFB70180E290E00E945E2983948F
:105250008214C0F3512C73CF522C5818821408F4C6
:105260006ECFF8CF842D867809F47BCF8BE241FE98
:1052700080E247FC8DE2B70190E071CFB70180E397
:1052800090E00E945E299A946CCF8FEF9FEF99CFA8
:10529000FC010590615070400110D8F78095909501
:1052A0008E0F9F1F0895FC01615070400190011006
:1052B000D8F7809590958E0F9F1F08950F931F9399
:1052C000CF93DF93182F092FEB018B8181FD09C04C
:1052D0001FEF0FEF812F902FDF91CF911F910F9133
:1052E000089582FF14C02E813F818C819D812817F3
:1052F00039073CF4E881F981CF01019699838883CD
:1053000010838E819F8101969F838E83E3CFE885F2
:10531000F985812F0995892BA1F3DACFFA01AA2704
:10532000283051F1203181F1E8946F936E7F6E5FE8
:105330007F4F8F4F9F4FAF4FB1E03ED0B4E03CD096
:10534000670F781F891F9A1FA11D680F791F8A1F79
:10535000911DA11D6A0F711D811D911DA11D20D0E0
:1053600009F468943F912AE0269F11243019305D9A
:105370003193DEF6CF010895462F4770405D41938B
:10538000B3E00FD0C9F7F6CF462F4F70405D4A33D8
:1053900018F0495D31FD4052419302D0A9F7EACFA0
:1053A000B4E0A6959795879577956795BA95C9F7CF
:1053B00000976105710508959B01AC010A2E0694C2
:1053C0005795479537952795BA95C9F7620F731F7B
:1053D000841F951FA01D08952F923F924F925F92B8
:1053E0006F927F928F929F92AF92BF92CF92DF92F5
:1053F000EF92FF920F931F93CF93DF93CDB7DEB75A
:10540000CA1BDB0B0FB6F894DEBF0FBECDBF0994ED
:105410002A88398848885F846E847D848C849B8444
:10542000AA84B984C884DF80EE80FD800C811B8152
:10543000AA81B981CE0FD11D0FB6F894DEBF0FBE81
:10544000CDBFED01089512E0C4E0D2E004C0FE013A
:105450000E9411262196C530D107C9F7F894FFCFD5
:10546000FFFFFFFF00E10000000000003C00000023
:1054700000000000050600000000000000CA0580D2
:105480000000000000DC0B0414DD0B9913DC140099
:10549000000000DC0B0614DD0B2313911400000048
:1054A00000DC0B0814DD0BDE12421400C180810009
:1054B000000000000000B5043004D604CB041C0535
:1054C000DA04F80400000000D00AA30AFF0A790AEF
:1054D0009C0A890A7A0A00000000C40F6E616E00FF
:1054E000696E66006F7666000D0A006176673A00A5
:1054F00073756D3A0073697A653A004D50553630D0
:1055000035305F54004D5055363035305F41004DD9
:105510005055363035305F47004661696C65642010
:10552000746F2066696E64204D50553630353020DA
:1055300063686970006D61673A007369676D613A0D
:10554000007A73636F72653A005265736574004147
:105550006363656C583A25692C20416363656C5917
:105560003A25692C20416363656C5A3A25690050DD
:0A55700065616B733A202575000099
:00000001FF
